:020000040800F2
:1000000088240220A1030008A9030008AB0300080C
:10001000AD030008AF030008B103000800000000B2
:10002000000000000000000000000000B303000812
:10003000B503000800000000151E0008411E00085E
:10004000BB030008BB030008BB030008BB03000898
:10005000BB030008BB030008BB030008BB03000888
:10006000BB030008BB030008BB030008BB03000878
:10007000BB030008BB030008BB030008BB03000868
:10008000BB030008BB030008DD1D0008BB0300081C
:10009000BB030008BB030008BB030008BB03000848
:1000A000BB03000819200008BB030008BB030008BD
:1000B0004D2000085920000865200008BB030008F7
:1000C000BB030008BB030008BB030008BB03000818
:1000D000BB030008AD200008B9200008C5200008B7
:1000E000BB030008BB030008BB030008BB030008F8
:1000F000BB030008BB03000889200008BB030008FD
:10010000BB030008BB03000871200008BB03000804
:1001100095200008A1200008BB0300087D200008EE
:10012000BB030008BB030008BB030008BB030008B7
:10013000BB030008BB030008BB030008BB030008A7
:10014000BB030008BB030008BB030008F91D00083F
:10015000BB030008BB030008BB030008D120000854
:10016000BB030008BB030008BB030008BB03000877
:10017000BB030008BB030008BB030008000000002D
:10018000BB030008BB030008BB030008BB03000857
:10019000BB030008BB030008BB030008BB03000847
:1001A000BB030008BB030008BB030008BB03000837
:1001B000BB030008BB030008BB030008BB03000827
:1001C000BB030008BB030008BB030008BB03000817
:1001D000BB030008BB030008BB030008BB03000807
:1001E000BB030008BB030008BB030008BB030008F7
:1001F000BB030008BB03000800F002F800F0ABF8F6
:100200000AA090E8000C82448344AAF10107DA4571
:1002100001D100F0A0F8AFF2090EBAE80F0013F018
:10022000010F18BFFB1A43F0010318478C6D000043
:10023000AC6D00000A4410F8014B14F00F0508BF24
:1002400010F8015B240908BF10F8014B6D1E05D0A2
:1002500010F8013B6D1E01F8013BF9D1641E03D07B
:10026000641E01F8015BFBD19142E4D370470000AA
:100270000023002400250026103A28BF78C1FBD8AF
:10028000520728BF30C148BF0B6070476E2900F08D
:10029000F782702900F03984662906F026816529E5
:1002A00006F02381672906F020816129AFF30080E1
:1002B00003681B0A28BF41F08001692900F0A4826D
:1002C000642900F0A182752900F09E826F2900F058
:1002D000C683782900F00584E92900F06183E429C8
:1002E00000F05E83F52900F05B83EF2900F0C38303
:1002F000F82900F004840368DB0928BF41F080017D
:10030000632900F0D487732900F0D987E32900F02E
:10031000E487F32900F0E987002070471FB506F055
:10032000DAF89DE8030000F0CBF901F053F804007F
:100330000020002105F076FB401C606000200021B9
:1003400005F05AFBE06000F083F91FBD10B50020F6
:1003500000F0AAFC10BD01F010F81146FFF7DEFF17
:1003600005F07CFA01F0ECF803B4FFF7EFFF03BCF3
:1003700000F080F9EFF3088020E9F00F80F308889F
:100380002DED200AEFF30880704780F30888BDEC5C
:10039000200AEFF30880B0E8F00F80F30888704778
:1003A0000948804709480047FEE7FEE7FEE7FEE709
:1003B000FEE7FEE7FEE7FEE7FEE7FEE70448054945
:1003C000054A064B704700007D1E0008F901000831
:1003D0008804022088240220881402208814022025
:1003E00070B5064600F04CF9056806F10B0020F0E8
:1003F0000704B4429CBF002070BD2B466A68BAB1A6
:100400001068A04210D304F1080188423CBF506834
:10041000586007D35168101941601168091B0160C9
:1004200058601460101D70BD13465268002AE7D151
:100430002146284600F030F90028DED170BD70B5A5
:100440000446051F00F01CF90068002C14BF446826
:1004500070BD002C18BFAC423CBF20466468F8D386
:1004600001680A18AA4218BF456003D12A680546E8
:100470001144016028684119A1421CBF6C6070BD25
:100480006168696021680844286070BD53EA020C05
:1004900000F069802DE9F04B4FF00006002B1FBFE4
:1004A000B3FA83F503FA05F424FA05F65E4012BFA9
:1004B0001643B2FA82F502FA05F4C5F120051EBF13
:1004C00022FA05FC44EA0C04203556EA044C4FEAB3
:1004D000144418BF641C4FF000084FF0000990420C
:1004E00071EB030C39D3002919BFB1FA81F701FA76
:1004F00007F6B0FA80F700FA07F6C7F120071EBF2B
:1005000020FA07FC46EA0C062037B6FBF4FCA7EB02
:100510000507103F07F01F0BCBF120060CFA0BFB71
:100520002CFA06F644BFB3460026202FA4BF5E4631
:100530004FF0000B5BEA060C08BF4FF0010B19EB04
:100540000B09ABFB027C48EB0608C01B06FB02CC88
:100550000BFB03CC71EB0C01C1E70B460246414695
:100560004846BDE8F08B13B54FF000004FF0000196
:10057000AFF30080BDE81C40704700001CB50C467E
:10058000064B7B4469460090204600F092F90446F1
:100590000020694600F0A0F920461CBD530300006E
:1005A00010B5002000F0A1FBFFF7D0FEBDE8104021
:1005B000012000F05FB82DE9F041074615460E46D0
:1005C0001020FFF70DFF04000AD06760C4E9026540
:1005D00000F05AF80168216004600020BDE8F08155
:1005E0000120FBE710B5203AC0F00B80B1E81850AD
:1005F000203AA0E81850B1E81850A0E81850BFF40D
:10060000F5AF5FEA027C24BFB1E81850A0E81850AB
:1006100044BF18C918C0BDE810405FEA827C24BFFF
:1006200051F8043B40F8043B08BF7047D20728BF8D
:1006300031F8023B48BF11F8012B28BF20F8023BDC
:1006400048BF00F8012B70477047704770470000A3
:1006500070B5064C7C44064D7D4403E02068204480
:100660008047241DAC42F9D170BD0000AC6A000087
:10067000AC6A000001491820ABBEFEE7260002006C
:10068000004870472C040220004870475C04022098
:10069000704770477047704738B504460A460020D7
:1006A0006946AFF30080002808BF38BD02460099B4
:1006B000204600F02BFB012038BD012000F056BE83
:1006C000F8B5AFF30080054600200C46102000BFAF
:1006D0000646A819A0420DD9324669460020AFF35C
:1006E0000080070008BF00F041FE0098A04218BF3C
:1006F0000546C419FFF7C4FF05600746F01D20F04A
:1007000007004619284600F00AF8B44208BFF8BDB1
:10071000A21B31463868BDE8F84000F0F7BA002166
:100720000160C0E9011070471020704710B500F05B
:10073000E9FA006810BD10B5044600F0E3FA046061
:1007400010BD70B5044685690068C10601D5302624
:1007500000E02026C00707D070BDD4E90121304653
:100760009047206A401C20626D1EF6D570BD70B5A2
:10077000044685690078C00707D170BDD4E901211E
:1007800020209047206A401C20626D1EF6D570BD67
:1007900009684A0501D540B27047C905FCD500B2C9
:1007A000704709684A0501D5C0B27047C905FCD534
:1007B00080B2704770B50C460546012A05D02878EE
:1007C000800600D5EA69002302E0012305E05B1CF6
:1007D000934202D2E05C0028F9D1A869E618C01A59
:1007E000A861286A184428622846FFF7AAFF04E097
:1007F000D5E9012114F8010B9047B442F8D32846FB
:10080000FFF7B5FF70BD00002DE9F041064600245A
:1008100010687529314616A510D0FFF7B9FF0028DA
:1008200002DA404213A507E031688A0701D512A514
:1008300002E0490704D511A5012401E0FFF7B1FF4B
:1008400000210A2206F1240709E0B0FBF2FCB0FB0C
:10085000F2F302FB1C00303078541846491C002883
:10086000F3D123462A463046BDE8F04100F0ADBA48
:10087000000000002D0000002B0000002000000000
:1008800011680268006A530501D508700AE0D305B3
:1008900001D5088006E0130603D5C217C1E900029E
:1008A00000E008600120704701694A1C0261087875
:1008B000704700B58FB0CDE90131002105910549A0
:1008C0007944CDE903101146684600F029F90FB0CC
:1008D00000BD0000E5FFFFFF0A6802F8010B0A6097
:1008E000704700002DE9FF5F15468A460446DFF891
:1008F000AC80F8440027D8E900103E46CDE900104E
:1009000010E03AF816106A4602A800F0F2FC411C0A
:1009100007D02178890603D5E269391891420DD8AC
:100920000744761C2078800602D5E069B84205DDD0
:10093000AE42E6DB3AF816000028E2D1A069C01BFF
:10094000A0612046FFF7FDFED8E90010CDE90010B8
:10095000002017E03AF818106A4602A800F0C9FC17
:10096000B0F1FF3F81460BD000250DF1080B05E0EB
:10097000D4E901211BF8050090476D1C4D45F7D3C4
:1009800008F10100B0428046E4DB206A384420626E
:100990002046FFF7ECFEBDE8FF9F0000BA600000B4
:1009A0002DE9F0418046D21D22F007020025D2E950
:1009B0000002F52915A614D0011E72F1000106DA15
:1009C0000023D0EB030063EB020211A608E0D8F885
:1009D00000108B0701D50FA602E0490701D50EA62E
:1009E00001251146002408F1240704E000F0A8F9CD
:1009F00030323A55641C50EA0102F7D12B46324698
:100A000021464046BDE8F04100F0DFB9000000009B
:100A10002D0000002B0000002000000030B4002159
:100A200000F1240408E002F00705D208303542EA5C
:100A30004372DB086554491C52EA0305F3D104688C
:100A4000002310A2250707D5A40600D421B1C4694C
:100A500001230DA2641EC46130BC00F0B6B910B50C
:100A6000044621461068FFF79CFE02462046BDE87A
:100A700010400023D2E7D21D22F00701D1E9002364
:100A8000CCE700000000000030000000F0B40D468C
:100A90000188090502D5214C7C4402E01F4C7C44AE
:100AA0000E34002100F1240608E002F00F071209BD
:100AB000E75D42EA03721B097754491C52EA0307B7
:100AC000F3D102780023120704D5702D06D009B1A6
:100AD000022311342246F0BC00F077B90123103410
:100AE000F8E770B504460D4621461068FFF759FE39
:100AF000024629462046BDE870400023C6E7D21DC5
:100B000022F00703D3E90023C0E70368126843F02B
:100B1000200303600823C3610023B7E71C5F0000C4
:100B20002DE9F05F894604464FF0000ADFF874B102
:100B3000FB44C0F820A02046E1688847002874D014
:100B4000252806D0D4E901219047206A401C206264
:100B5000F1E700265F462046E168884720280546E1
:100B600007DB312D05D2781910F8200C08B10643A7
:100B7000F1E7B00701D526F00406C4F81CA0002751
:100B8000C4F818A02A2D09D0284604F05FFE38B317
:100B900004EB8708303DC8F8185019E059F8041BD9
:100BA000204604EB87029161E1688847012F0546E2
:100BB00018D1E069002820DA26F020061DE0D8F8D8
:100BC000180000EB800005EB40003038C8F8180032
:100BD0002046E1688847054604F038FE0028EED13B
:100BE000012F0AD02E2D08D12046E16888477F1CAE
:100BF0000546022F46F02006C4DBA069002803DA70
:100C0000404246F00106A061F00701D026F0100630
:100C10006C2D0BD0682D09D04C2D39D06A2D35D0D4
:100C2000742D35D07A2D33D016E038E0E1682F46A8
:100C300020468847B842054609D16C2F26D04FF48C
:100C40008060E168064320468847054604E06C2F33
:100C50001AD04FF4807006430DB3A5F14100192856
:100C600002D8203546F400664A46294620462660CA
:100C70004E46FFF70BFB80B101280BD0F61D26F086
:100C8000070000F1080956E74020E4E78020D8E794
:100C90000020D6E706F104094DE7284652E7206A0E
:100CA000BDE8F09FAC5E00002DE9F0410646FFF77D
:100CB000EBFC8046454613E016B1E068B0420ED129
:100CC00020682860D4E90101D8F8007088472046E0
:100CD000FFF7B5FBD8F80000B842EBD100E025469D
:100CE0002C68002CE8D1BDE8F08110B500F026FB9F
:100CF000BDE8104000F01DBB0048704724040220EE
:100D000070470000004870472404022003464068F2
:100D10008C46002818BF88423CBF03464068F8D381
:100D200018681844884207D00CF1030020F007002F
:100D3000001D411A521A0146081D0A60FFF77FBBC9
:100D400030B5B0F10A024FEA900E71F100034EEA9D
:100D5000817EB0EB0E0061EB91014FEA101E4EEA6E
:100D6000017E10EB0E0041EB11114FEA102E4EEAFE
:100D7000016E10EB0E0041EB11214FEA104E4EEACE
:100D8000014E10EB0E0041EB1141401841F1000102
:100D90004FEAD00040EA41704FEAD10110EB8005E4
:100DA0004FEA810444EA907444EB01046D1944EB6A
:100DB0000404521BA3414FF0000348BF0A3200D580
:100DC00030BD401C41F1000130BD2DE9F0470D461A
:100DD00099469246044600F124080168880604D525
:100DE000E06921F01001216000E00120A84201DD4E
:100DF000471B00E00027A1697A1902EB0900081AD5
:100E0000A0612078C00602D42046FFF79AFC002695
:100E100008E0D4E901211AF806009047206A401C36
:100E2000761C20624E45F4DB2078C0060AD52046A9
:100E3000FFF787FC06E0D4E9012130209047206AC3
:100E4000401C2062381EA7F10107F4DC07E0D4E95A
:100E5000012118F805009047206A401C2062281ED6
:100E6000A5F10105F3DC2046FFF781FC20780006A0
:100E700002D50220BDE8F0870120FBE770472DE98D
:100E8000FF4F0C461E464FF0FF378BB0D2E90001F2
:100E9000DDF860800A908A46C1F30A5505B93D46DF
:100EA000002108464FF00000BAF1000F00F44000A6
:100EB00005DA00EB80004FF4400101EA50004FEAF0
:100EC0009059B9F1010F00DDB9460A9850EA4A007D
:100ED0000ED044F61050A5F2FF3545432F14B8F15B
:100EE000000F1ED07542291E1EDDC9F100021CE054
:100EF000B8F1010F4FF0000001D0302103E0F243C0
:100F000005E02154401CB042FBDB304600220021AA
:100F100021540B99C1F80880C1E900200FB0BDE849
:100F2000F08FBD1B6D1CDEE74A4600DA694206A859
:100F300000F094FA06AB93E8070003AB83E80700E0
:100F400050460A9900F082FB8DE80700A0F500509A
:100F50001F3800900398002D0ADD42F21F014A4617
:100F60000844002303A90390684600F0EBFD09E064
:100F7000A0F500504A461F38002303A90390684695
:100F800000F0F5FD8DE807000004000C03D04FF0E1
:100F9000FF30410800E01046B8F1000F03D00022F6
:100FA000009215461EE0751E05D4FFF7C9FE3032CB
:100FB00062556D1EF9D5B3460122084302D00022C6
:100FC0007F1C04E02078302801D100227F1E002AF7
:100FD000099784D01DE0112D07DAFFF7B1FE3032FA
:100FE00062556D1C50EA0102F5D1084302D0009809
:100FF000C8B10EE00021681E05E0235C625C63540A
:101000002254401E491C8142F7DBAB46A81B401E00
:101010000990002004F80B000B98099AC0F808808A
:10102000C0E9002B7AE711264FF0000857E72DE9B9
:10103000F04F88460446D21D22F0070191B0D1E955
:101040000001CDE90A0104F040FA02460B98C00FF6
:1010500001D02D2007E02068810701D52B2002E078
:10106000202101EAC000032A099001D0072A05DBEC
:1010700003464146204600F0B1F90BE12078800696
:1010800001D5E06900E00620B8F1650F814606D081
:10109000B8F1660F18D0B8F1670F70D131E00020B9
:1010A000B9F1110F009001DB112301E009F10103F7
:1010B0000AAA01A90CA8FFF7E2FEDDE90C700026E0
:1010C00009F10105834647E001204B4600904FF0AF
:1010D00000470AAA01A90CA8FFF7D1FEDDE90DB06F
:1010E0000C995D46002610B909F101000D18B9EB05
:1010F000050003D4C0F1FF3609F10105A5EB090095
:101100002BE0B9F1010F01DA4FF001090020B9F12C
:10111000110F0090484601DD112300E003460AAAA2
:1011200001A90CA8FFF7ABFEDDE90C704D460026C7
:101130008346207800070AD4AB4500DA5D4601A853
:10114000012D04DD411911F8011C302907D04F454C
:1011500002DA17F1040F04DA012082460FE06D1E57
:10116000EEE7002F02DCED1B3E4403E0781CA842B2
:1011700000DD7D1CB81B00F1010A4FF0004720780C
:10118000000703D4AA4501DB4FF0FF3A0021B7F175
:10119000004F0DF143088DF8431024D002202B237B
:1011A000002F01DA7F422D230A21021EA0F1010047
:1011B00000DC5FB197FBF1FC97FBF1F201FB1C7CBB
:1011C00017460CF1300C08F801CDEEE7A8F101004C
:1011D00003702188090501D5452100E06521A0F1B2
:1011E000010800F8011C09980FA9A1EB0807FF1DD1
:1011F00000B10120411901EBEA70A1693844081AD5
:10120000401EA0612078C00602D42046FFF799FA5C
:10121000099828B1D4E901219047206A401C206236
:101220002078C00622D52046FFF78BFA1EE0002E5C
:1012300004DBB34502DD01A8805D00E03020D4E985
:1012400001219047206A401C2062761CAAF101000F
:101250005FEA000A0AD100F0BDF8C0680168405C8E
:10126000D4E901219047206A401C2062281EA5F184
:101270000105DCDC07E0D4E9012118F8010B9047F7
:10128000206A401C2062381EA7F10107F3DC2046CB
:10129000FFF76DFA032011B041E610B5436913B1B1
:1012A000AFF3008001E0FFF785FA012010BD12784E
:1012B00000F124010A7000224A700122EDE7116852
:1012C0004FF0FF32E9E710B5436913B1AFF3008087
:1012D00001E0FFF707FB012010BD128800F1240197
:1012E00082840022C2840122EDE711684FF0FF32B0
:1012F000E9E770B516460C46054600F063F803684A
:1013000093F80101012806D0FF2C0FD8185D68B1B1
:1013100001202C7070BDD3F807013246214603F23C
:10132000071303442846BDE8704018474FF0FF30CC
:1013300070BD002801D0FFF79DB9704710B500219E
:1013400002A000F006F9012010BD000053494741FA
:101350004252543A2041626E6F726D616C20746526
:10136000726D696E6174696F6E00000010B500F0F7
:1013700009F9BDE81040FFF7DCBF7546FFF7BCFC7C
:10138000AE4605006946534620F00700854618B072
:1013900020B5FFF713F8BDE820404FF000064FF0EE
:1013A00000074FF000084FF0000B21F00701AC469A
:1013B000ACE8C009ACE8C009ACE8C009ACE8C009B9
:1013C0008D46704710B500F005F8001D10BD00BF38
:1013D0005546000000487047440402202DE9F041C2
:1013E0001F46044603260168072A01F4006004DB57
:1013F00008B116A505E016A503E008B115A500E0A3
:1014000015A521F010002060A069C01EA0610FB1D9
:10141000401EA0612046FFF794F94FB1D4E90121A5
:1014200038469047206A401C2062C01C206206E0BB
:10143000206AFAE7D4E9012115F8010B9047761EDE
:10144000F8D22046FFF793F9BDE8F0814E414E00F7
:101450006E616E00494E4600696E66002DE9F047E8
:10146000814616468AB0354878440DC88DE80D008F
:1014700032487844801C03AC0DC884E80D0041F666
:101480009B300844372190FBF1F290FBF1F5A5F178
:10149000800501FB12041B3C02D56442012000E0E0
:1014A0000020DFF898A080460027FA44AAF1BE0A7F
:1014B0000EE0E0070AD03246684607EB47010123F9
:1014C0000AEB810100F053FB8DE8070064107F1CDC
:1014D000002CEED1194F7F44AE3F19E0E80715D03C
:1014E00007EB04100DF1180A90E80E008AE80E00D0
:1014F000C068F04201D1981908903246012306A92C
:1015000003A800F034FB03AB83E807006D10641CF4
:10151000002DE3D14FF0010332466946B8F1000FC8
:1015200003A802D000F00EFB01E000F020FBC9E9A7
:101530000001C9F808200AB0BDE8F0870456000091
:1015400010B50446AFF300802046BDE81040FEF71A
:101550000BBF70B505460C460A2000E06D1C00F07C
:1015600039F835B128780028F8D102E0641C00F081
:1015700031F814B120780028F8D1BDE870400A2075
:1015800000F028B810B5012805D0002103A0FFF70E
:10159000E0FF012010BD09A1F8E7000053494752C0
:1015A000544D454D3A204F7574206F662068656133
:1015B00070206D656D6F7279000000003A204865FB
:1015C0006170206D656D6F727920636F72727570D6
:1015D0007465640008B569468DF800000320ABBE51
:1015E00008BD00004FF0013C50F8042B51F8043BBB
:1015F0009A4215D1A2EB0C03934313EACC130BD1FF
:1016000050F8042B51F8043B9A4209D1A2EB0C0389
:10161000934313EACC13E7D04FF00000704700BFAC
:10162000D01A01BAB1FA81F101F0180122FA01F0E1
:10163000CB40C1F12001DBB2C0B2C01A2CFA01F3D9
:10164000D11A914311EAC311E6D170475FEA400C09
:1016500008BF91F0000F4FEA8C234FEAC12243EA02
:1016600051514FEA1C5018BF00F5F0404FEA3000CE
:1016700018BF41F000415FEA6C5C00F02980BCF1CA
:10168000FF3F08BF40F080407047130C06BF1204B4
:101690004FF0100C4FF0000C130E04BF12020CF1AF
:1016A000080C130F04BF12010CF1040C930F04BFBC
:1016B00092000CF1020CD30F04BF52000CF1010C8C
:1016C00011464FF00002A0F11F00A0EB0C00704784
:1016D00011F0004F08BF704731F000413FF4D5AF23
:1016E0000B0C06BF09044FF0100C4FF0000C0B0E52
:1016F00004BF09020CF1080C0B0F04BF09010CF127
:10170000040C8B0F04BF89000CF1020CCB0F04BF3B
:1017100049000CF1010CCCF12003A0EB0C0022FAE3
:1017200003F302FA0CF241EA030100F101007047F1
:1017300020F07F4C80EA030023F07F47ACEB0703E7
:1017400003F57C5300F0004003F1FF032DE98049CD
:101750004FEA154B09B44FEA144325EA0B4E24EA2D
:1017600003480FF2042606EB132749083E785FEA88
:10177000320203FB0667C7F5000707FB06F64FEAD0
:1017800054374FEAD64606F1020607FB066CCCF149
:10179000005C4FEA1C472CEA074C07FB06F40CFBE5
:1017A00006F504EB15464FEA961634BF00204FF0BD
:1017B00000404FEAD13706FB07FC4FEA1C4C0CFBFC
:1017C0000BF7D21B03FB0CF761EB07010CFB0EF7C9
:1017D000B0EB074072EB17420CFB08F734BFA2EBEB
:1017E0000742B2EB074261EB17414FEA0C444FEA64
:1017F000910706FB07FC4FEA1C4C0CFB0BF7B0EB08
:10180000C74072EB573203FB0CF734BFA2EBC74261
:10181000B2EBC74261EB57310CFB0EF7B0EBC700E0
:1018200072EB57720CFB08F734BFA2EBC702B2EBA6
:10183000C70261EB5771039F4FEA816141EA921140
:1018400004EBCC044FEAD1374FEA826206FB07FC77
:1018500042EA90124FEA80604FEA1C4C0CFB0BF7F7
:10186000D21B03FB0CF761EB07010CFB0EF7B0EB8F
:10187000074072EB17420CFB08F734BFA2EB07429C
:10188000B2EB074261EB17414FEA8C554FEA9107E3
:1018900004EB9C2406FB07FC4FEA1C4C0CFB0BF7EB
:1018A000B0EBC74072EB573203FB0CF734BFA2EB2F
:1018B000C742B2EBC74261EB57310CFB0EF7B0EBFE
:1018C000C70072EB57720CFB08F734BFA2EBC702DC
:1018D000B2EBC70261EB577115EB4C254FEA816102
:1018E00041EA92114FEA82624FEAD13742EA9012FE
:1018F00006FB07FC44F100044FEA80604FEA1C4CF1
:101900000CFB0BF7D21B03FB0CF761EB07010CFB85
:101910000EF7B0EB074072EB17420CFB08F734BF31
:10192000A2EB0742B2EB074261EB174115EB1C1526
:101930004FEA813141EA92414FEA823242EA9042D3
:101940004FEA80304FEA0C7644F1000448EA034342
:101950004EEA0B484FF0000EB2EB080C71EB030798
:1019600024BF624639464EEB0E0E4FF0000B0018B6
:10197000524149414BEB0B0BB2EB080C71EB0307E7
:101980007BF1000B24BF624639464EEB0E0E4FF042
:10199000000B0018524149414BEB0B0BB2EB080C0A
:1019A00071EB03077BF1000B24BF624639464EEB17
:1019B0000E0E51EA020718BF46F0010616EB0E762E
:1019C00055F1000254F1000103D5BDE88901BDE8DD
:1019D0000088BDE88901BDE80048B619524141EBD5
:1019E0000101A3F10103704780807F7E7D7C7B7ABB
:1019F0007978777676757473727171706F6E6E6DBB
:101A00006C6C6B6A6A696868676666656464636360
:101A100062616160605F5F5E5E5D5D5C5C5B5B5AE6
:101A20005A59595858575756565555555454535353
:101A300052525251515050504F4F4F4E4E4D4D4DAE
:101A40004C4C4C4B4B4B4A4A4A49494948484847F9
:101A50004747474646464545454444444443434337
:101A60004342424242414141002B9C4630D47700E0
:101A70002BD01CB54FEA370703B44FF010004FF0DE
:101A80001001BAF1000F06D0BCF1000FDCBF40F02E
:101A9000080040F008014FF000000FBCBDE8104006
:101AA0000BF1010BBBF1010F08BF5FEA170722BF63
:101AB00012F1010211F101014FF0004143F1000365
:101AC00000F0004043EA00007047F9D35708D0E720
:101AD00046EA064613F1400F4FEA16461FDD13F1A2
:101AE000200FDFBF16430A46002120335B42BED0E1
:101AF000C3F1200746EA064602FA07F74FEA164600
:101B000046EA0706C3F1200722FA03F201FA07F7B3
:101B100021FA03F14FF0000342EA0702A7E746EA81
:101B2000020646EA06464FEA164646EA0106BCBFEA
:101B300046EA0646360C4FF000034FF000024FF025
:101B4000000194E72DE9804C9A46934670B491E8E1
:101B5000380007C831EA400C48BF34EA430C03D5CB
:101B6000FFF7E6FDFFF780FFF0BCBDE8008C2DE934
:101B7000804C9A46934670B491E8380007C810F03C
:101B8000804F08BF13F0804F03D100F005F8FFF736
:101B90006BFFF0BCBDE8008C20F07F4780EA0300BB
:101BA00023F07F4C07EB0C03A3F57C5300F00040BF
:101BB000A3F1FE0392F0000F00F0B38095F0000F48
:101BC00000F077802DE901494FEA11404FEA1446B1
:101BD00021EA004800FB06FC24EA064708FB06F65B
:101BE00007FB08F800FB07F718EB06484CEB164C10
:101BF0004FEA124B18EB07484FEA15464CEB1740DB
:101C000022EA0B4E0BFB06FC25EA06470EFB06F606
:101C100007FB0EFE0BFB07F71EEB064E4CEB164CBC
:101C20004FF000061EEB074E4CEB174B18EB0B0862
:101C300040F1000018EB0E0B58EB000840F10000DB
:101C40008F1A4FF000013CBFC943661B14BFB5EBB0
:101C5000040C00213CBFC943F61B4FEA17444EEA6F
:101C60008E0E27EA04454FEA1C4704FB07622CEA64
:101C7000074C05FB07F70CFB05F604FB0CFC16EB09
:101C8000074642EB174216EB0C4642EB1C421BEB9D
:101C9000060658EB0202414146EA9E0601D5BDE820
:101CA0000189B619524141EB0101A3F10103BDE8DD
:101CB00001894FEA14454FEA114724EA054621EA13
:101CC000074C05FB07F406FB07F70CFB06F105FBC9
:101CD0000CFC11EB074144EB17444FEA124711EBA0
:101CE0000C4144EB1C4422EA074C05FB07F206FBBF
:101CF00007F70CFB06F605FB0CFC16EB074642EB60
:101D0000174216EB0C4642EB1C456A1854F10001D1
:101D100048BF7047B619524141EB0101A3F10103DD
:101D2000704795F0000F37D04FEA11424FEA144741
:101D300021EA024624EA074C02FB07F106FB07F7FB
:101D40000CFB06F402FB0CFC14EB074441EB1741BF
:101D50004FEA154714EB0C4441EB1C4125EA074CB4
:101D600002FB07F506FB07F70CFB06F602FB0CFC73
:101D700016EB074645EB174516EB0C4645EB1C42A8
:101D8000121951F1000148BF7047B619524141EB99
:101D90000101A3F1010370474FEA14454FEA1147CF
:101DA00024EA054621EA074C05FB07F106FB07F785
:101DB0000CFB06F24FF0000605FB0CFC12EB074291
:101DC00041EB174112EB0C4251EB1C4148BF7047ED
:101DD000921841EB0101A3F1010370470448016827
:101DE00021F0020101600348C068016809690847E1
:101DF000002201407401022010B502F047FE0448A1
:101E0000406D03F021F9BDE8104002F031BE000042
:101E10007401022010B5FEF7ADFA074908600021F1
:101E2000064A05481268006890470349086008465A
:101E30000068FEF7AAFA10BDE40102207801022032
:101E400010B5FEF797FA0A4908600A480949006880
:101E5000401C0860084A0121054812680068904744
:101E60000349086008460068FEF78FFA10BD0000BD
:101E7000E00102207C010220780102202DE9F041DE
:101E80005E48016841F4700101605D49086840F0F6
:101E9000010008605A4A0025083215600868594B4D
:101EA000184008600C1D58482060086820F4802005
:101EB0000860101D0560086840F4803008600868FC
:101EC00040F00100086000204FF4A0460B689B031F
:101ED00002D4401CB042F9D30868800346D54B4B6E
:101EE0000720186046484030036843F08053036081
:101EF000106840F43440106045482060086840F0A5
:101F00008070086008688001FCD5106820F003002C
:101F10001060106840F0020010601068C0F381008B
:101F20000228FAD1086820F0805008600868800014
:101F3000FCD4334A88321068C0F303604FF458333E
:101F400043EA006040F0A0401060101D026822F4D7
:101F500040320260001D026842F0006202600868C0
:101F600040F08050086008688000FCD523494FF09D
:101F7000006080390860214E361F3560BFF34F8FF7
:101F8000371F3868C0F34E31DFF888C043F6FF745E
:101F9000C0F3C903184604EA411242EA8078CCF83B
:101FA0000080401EF9D2491E481CF3D1BFF34F8F69
:101FB000BFF36F8F3560BFF34F8F104874380168DF
:101FC00021F480310160BFF34F8F3868C0F34E3188
:101FD000104AC0F3C9061432304604EA411343EAFA
:101FE00080751560401E451CF9D1491E481CF3D16F
:101FF000BFF34F8FBFF36F8FBDE8F08188ED00E036
:1020000000380240FFFFF6FE10300024003C024082
:102010001964407860EF00E070B5094C20694FF01A
:102020000005C00705D00748006900F051F9256197
:1020300070BD054801680029FAD0056070BD000038
:102040000000014074010220104401400148406931
:1020500000F03EB9740102200148806900F038B9EF
:10206000740102200148C06900F032B974010220F5
:102070000148006A00F02CB9740102200148406A4E
:1020800000F026B9740102200148806A00F020B9EE
:10209000740102200148806C03F0F4B9740102203D
:1020A0000148C06C03F0EEB9740102200148C06B16
:1020B00003F0E8B9740102200148006C03F0E2B9B2
:1020C000740102200148406C03F0DCB97401022065
:1020D0000148006D03F0D6B974010220002809DB25
:1020E000012100F01F0291404009800000F1E02032
:1020F000C0F800117047FFB583B0044604F1080032
:10210000BDF81260BDF810703246394602F0D4F8BE
:10211000012588B1A0686430E368323301900293EE
:10212000201DDDE9011201F05FFF84F828502046F0
:1021300000F078F884F8505004F11800324639461F
:1021400002F0BAF890B1A0696430E16932310190CF
:102150000291201DDDE9011201F046FF002084F804
:102160002800204600F05EF884F85050206801688E
:10217000496807B0BDE8F04008472DE9FF4188B045
:10218000054695F8280000283FD100260024BDF818
:102190002470BDF82680E86A00EBC400D0E9001086
:1021A000CDE906100698B8420EDA06983946A030F6
:1021B000884209DD0799414506DA07984146A03073
:1021C000884201DD012000E00020D8B150305031BC
:1021D00002900391DDE90201CDE90401F0071BD073
:1021E000DDE90401CDE902014FF478400090039845
:1021F00082B2029881B268680368D3F830C00423C1
:10220000E047761C641C092CC5DB28680168496816
:102210000CB0BDE8F0410847281DDDE9041201F0CB
:10222000E3FEEEE770B50446082003F04CF9002108
:102230000A4601604260E062082003F044F9002190
:10224000A022016042602063082003F03CF90021D5
:102250004FF4A075016045606063082003F033F916
:10226000A021002201604260A063082003F02BF946
:10227000A0210A4601604260E063082003F023F9D0
:10228000A021016045602064082003F01CF90021B2
:10229000056041606064082003F015F9A021056025
:1022A0004160A064082003F00EF905604560E06419
:1022B00070BD017080ED010AC0ED020A7047000098
:1022C000024B03608180C28070470000906A000862
:1022D0004269002111610168096908472DE9F0414F
:1022E0000E4617462DED048B6B4940F8081B01F094
:1022F000D8FE08386949044601602674694D68486B
:102300002B1F0C2E74D2DFE806F07306111D283344
:102310003E49545C646C644961610461286840F022
:10232000010028601920FFF7D9FE61E04FF08041DD
:1023300061614461186840F0010018601C20FFF7DB
:10234000CDFE55E0594961618461186840F0020092
:1023500018601D20FFF7C2FE4AE055496161C46163
:10236000186840F0040018601E20FFF7B7FE3FE039
:10237000504961610462186840F00800186032201A
:10238000FFF7ACFE34E04C4961614462186840F0EC
:10239000200018603720FFF7A1FE29E0474961615E
:1023A0008462286840F0020028602E20FFF796FE25
:1023B0001EE043496161C462286840F480302860AF
:1023C00016E0404961610463286840F400302860E9
:1023D0000EE03D4961614463286840F48020286034
:1023E00006E03A4961618463186840F480701860BF
:1023F000384603F004FE9FED369B53EC192B03F097
:1024000011FE9FED351B53EC112B03F00BFE03F077
:1024100097FB00EE100A01253149F2EE040A06E0AE
:1024200005EB8500450080EE201AB0EE410A10EE63
:10243000100A8842F4DCBCEEC00A10EE106AE660B6
:10244000284603F0DCFD41EC180B304603F0D7FDC5
:102450009FED241B53EC112B03F0E4FD53EC182BE0
:1024600003F0E0FD53EC192B03F044FC03F09AFD5C
:10247000606001206169C860616948616D1E6169C1
:102480008D626269E168D162616908602046BDECD5
:10249000048BBDE8F0810000786E0008B06A000887
:1024A0007401022044380240000001400004004052
:1024B00000080040000C00400014004000040140EF
:1024C000004001400044014000480140002000401D
:1024D0000000000084D79741000000A0F7C6B03E7E
:1024E00000FF7F470000000080842E4110B50446A5
:1024F00004F1080002F073FAA179884201D00120AA
:1025000010BD002010BD417182798A4201D00121A5
:1025100000E00021083002F06FBA70B5044625795A
:102520002068416920468847207100B10DB110B183
:1025300004E0012070BD0DB1022070BD002070BD0F
:1025400070B50C461E46049D0B4940F8081B2146F9
:1025500002F06AFAA0F10804002020716071A571F0
:1025600004F10800294602F047FA04F10800314658
:1025700002F054FA204670BDCC6A0008FEE7000065
:1025800010B50648002306494FF47A7200680968BE
:10259000A0FB0101FDF77AFF10BD00007C010220C5
:1025A000E801022010B5044620688168204688476B
:1025B00000EE100A94ED021AF8EE400A94ED030AB8
:1025C00001EE200A10BD000000B530EE601ADFED0C
:1025D000051A001D81EE210AFFF76BFE024940F843
:1025E000041D00BD00FF7F47FC6A00082DE9F05F75
:1025F00004468B4692461F46DDE90A8900250120E4
:1026000020716079002801D002F040FA9FB1206863
:1026100081682046884720685946026920469047CD
:1026200007E020681AF8051046692046B0476D1C7F
:10263000EDB2BD42F5D3B9F1000F1DD0206881681D
:102640002046884720684BF00101026920469047E8
:102650000025A9F1010907E0206881692046884723
:1026600008F805006D1CEDB24D45F5DB2068C16929
:102670002046884708F805002068C168204688473A
:10268000607908B102F0F4F9207910B10020BDE8BA
:10269000F09F0120FBE73FB583B00446CDE900235E
:1026A00060680123217A0268556804AAA847617A04
:1026B0000843607207B030BD417A0022427208467A
:1026C00070470000024A02600122027141717047A6
:1026D000146B000870B50023144A21E0B0EB144FCE
:1026E0001CD132F82300C0F30330C4F3031504F007
:1026F0000F0301F00F02032A01D041F002010C4C3C
:10270000226801268640324322600A4A02EB80207A
:102710000A46294600F010F8012070BD5B1C9BB2F0
:1027200052F82340002CD9D1002070BD00000220B7
:1027300030380240000002402DE9F04F04464FEAD5
:10274000410C4FEAD109012088406FEA000A0320BA
:1027500000FA0CF0C54348070F26C00E86406FEA0A
:10276000060B02F0030606FA0CF6C2F3012707FA7D
:102770000CF7C2F3001808FA01F8C2F3013202FAAA
:102780000CF203F00F03834002F080F92068284028
:1027900030432060E06828403843E060606800EA29
:1027A0000A0040EA08006060A06828401043A0606A
:1027B00004EB8900016A01EA0B0119430162BDE8DB
:1027C000F04F02F055B9000070B50D46002101F040
:1027D0004DFC0446044820602146286802692846CA
:1027E0009047204670BD0000206F00088168491C9A
:1027F0008160704702461069002802D00268526862
:10280000104702F1180001F01EBC000070B50D4623
:10281000002101F02BFC0D4940F8181B01F041FC90
:10282000A0F11804256100206061206948B10168A9
:102830004A68214690472069016809688847E06036
:1028400002E04FF0FF30E060204670BD3C6B0008B6
:1028500090ED031AD0ED020A30EE410A9FED0F1AF7
:1028600020EE800ADFED0C0AB4EEC10AF1EE10FA98
:1028700002DDB0EE410A06E0B4EEE00AF1EE10FA35
:1028800001D2B0EE600A0268BCEEC00A10EE101A67
:10289000926889B2104700000000000000FF7F47E7
:1028A00000B5B4EE600AF1EE10FA06D030EE601A10
:1028B000F7EE001A81EE810A01E0B7EE000A9FED03
:1028C000051A001D20EE010AFFF7F3FC024940F84B
:1028D000041D00BD00FF7F47586B00088168491C3C
:1028E0008160704730B5002203681C788C4204D8A0
:1028F0005D788D4201D3091BCAB29B78416802FB07
:102900000311816030BD034600B5184602F0D3FDC7
:1029100002FB001081B2986801F0070200EBD100C1
:1029200080210078D140084008B1012000BD00207E
:1029300000BD016042608260704700207047002047
:1029400070472DE9F04104468846DDE9067600250A
:10295000012020716079002801D002F097F808F07A
:10296000FE0CBBB1A1684CEA03404860A068416816
:1029700041F40051416007E0A06881698907FCD5F6
:10298000515D81626D1CEDB29D42F5D3A0688169F5
:102990004906FCD5A1684CEA064040F480604860D6
:1029A000A068416841F400514160002007E0A1683F
:1029B0008A695207FCD5496A3954401CC0B2B042FA
:1029C000F5D3A06881694906FCD5416841F480418E
:1029D0004160607908B102F04BF8207910B1002015
:1029E000BDE8F0810120FBE77047704770477047F2
:1029F00070B58AB00E4615461946FFF763FE0446C9
:102A000045482060012E454806D0022E13D0032EE3
:102A100020D0042E3BD12CE04149A160016841F453
:102A20000011016010219F20FFF754FE1021A0200B
:102A3000FFF750FE2BE03B49A160016841F48001A3
:102A400001601021A220FFF745FE1021A320FFF70F
:102A500041FE1CE03449A160016841F400010160BD
:102A60001021A520FFF736FE1021A620FFF732FE29
:102A70000DE02E49A160016841F0807101601021D4
:102A8000A820FFF727FE1021A920FFF723FE2848E2
:102A9000D0E90512CDE90812D0E90712CDE90612F6
:102AA000D0E90912CDE90412D0E90B12CDE90212E6
:102AB000D0E90D01CDE900012DB1022D05D0032D86
:102AC00005D0042D05D0002104E0012102E00221FF
:102AD00000E0032108A83DF8112010F811000007BC
:102AE00040EA025002AA32F8112040EA024004AA49
:102AF00032F8112040EA022006AA32F811100843E9
:102B0000A1680861A068016841F2010211430160F7
:102B10000AB0204670BD0000786B000840380240C3
:102B20000054004000580040005C0040006000403D
:102B30007469000801790069026892681047000012
:102B400070B50C4616461A463146FFF73DFD05495D
:102B5000054601602C61204621684C683146A0473B
:102B6000284670BDA46B000838B504466A4604F1D7
:102B70001000042305460321FFF78DFD2846FFF7CB
:102B80009BFD002819D19DF800000221B1EB901F98
:102B900014D19DF802209DF8031002F00F0241EAC3
:102BA0000221A1809DF8011000F00F0041EA0020F1
:102BB000A189081AE0800120207238BD002020720F
:102BC00038BD000010B50C464FF4F0724FF4487158
:102BD00002F0D0F80246054810605423044910461C
:102BE0001161446103760021417610BDBC6B000881
:102BF000E46E00080279006903681B68184700004A
:102C00000B4610B51146FFF74BFE04460448206002
:102C10002361184619684B6811469847204610BD35
:102C2000D46B000830B585B00446FEA0006804905F
:102C30000022A06A01680B6811469847A06A042226
:102C400001684B6804A99847F7A0006804908022A7
:102C5000A06A01680B6800219847A06A03220168F6
:102C60004B6804A99847F1A0006804908022A06AEC
:102C700001680B6800219847A06A022201684B682E
:102C800004A99847EAA0006804908A22A06A016813
:102C90000B6800219847A06A022201684B6804A9CA
:102CA00098470A2001F0D5FEE2A000680490B12206
:102CB000A06A01680B6800219847A06A0222016897
:102CC0004B6804A99847DCA0006804909122A06A90
:102CD00001680B6800219847A06A022201684B68CE
:102CE00004A99847D5A000680490B422A06A01689E
:102CF0000B6800219847A06A022201684B6804A96A
:102D00009847CFA0006804900022A06A01680B6871
:102D100011469847A06A022201684B6804A99847A7
:102D2000C8A0006804908122A06A01680B68002195
:102D30009847A06A022201684B6804A99847C2A07C
:102D400000680490A122A06A01680B6800219847DE
:102D5000A06A022201684B6804A99847BBA00068DA
:102D600004909222A06A01680B6800219847A06A2B
:102D7000022201684B6804A99847B5A00068049036
:102D80009522A06A01680B6800219847A06A022278
:102D900001684B6804A99847AEA00068049000221F
:102DA000A06A01680B6811469847A06A032201686F
:102DB0004B6804A99847A8A0006804909422A06AD0
:102DC00001680B6800219847A06A022201684B68DD
:102DD00004A99847A1A000680490A322A06A0168F2
:102DE0000B6800219847A06A022201684B6804A979
:102DF00098479BA0006804908222A06A01680B6833
:102E000000219847A06A022201684B6804A99847EC
:102E100094A0006804908122A06A01680B680021D8
:102E20009847A06A022201684B6804A998478EA0BF
:102E300000680490A122A06A01680B6800219847ED
:102E4000A06A022201684B6804A9984787A000681D
:102E50000490A622A06A01680B6800219847A06A26
:102E6000032201684B6804A9984781A005C8CDE9F1
:102E70000302A06A802201680B6800219847A06ABB
:102E8000072201684B6803A998477BA0D0E900534B
:102E9000D0E90220CDE90153CDE90320A06AA022A8
:102EA00001680B6800219847A06A0F2201684B68EF
:102EB00001A9984774A0D0E90053D0E90220CDE9D8
:102EC0000153CDE90320A06AB02201680B680021FC
:102ED0009847A06A0F2201684B6801A998476EA025
:102EE000D0E9003280680490CDE90232A06AC022A5
:102EF00001680B6800219847A06A0B2201684B68A3
:102F000002A9984767A000680490D022A06A0168CF
:102F10000B6800219847A06A022201684B6804A947
:102F2000984761A0D0E9003280680490CDE9023270
:102F3000A06A802201680B6800219847A06A0B22D2
:102F400001684B6802A998475AA0D0E9015302686A
:102F5000C06801920490CDE90253A06A90220168F2
:102F60000B6800219847A06A102201684B6801A9EC
:102F7000984750A0D0E90035D0E90220CDE90135CD
:102F8000CDE90320A06AA02201680B6800219847C0
:102F9000A06A102201684B6801A9984742A0D0E9B5
:102FA000002380680490CDE90223A06AB022016862
:102FB0000B6800219847A06A0B2201684B6802A9A0
:102FC000984740A001A990E82C00C0682CC104904B
:102FD000C022A06A01680B6800219847A06A1022ED
:102FE00001684B6801A998473AA0D0E90053D0E99D
:102FF0000220CDE90153CDE90320A06AD022016867
:103000000B6800219847A06A102201684B6801A94B
:10301000984725A0D0E9003280680490CDE90232BB
:10302000A06A5FE0FF800901FF800900C430000052
:10303000C4400000C5A90000C5340000C050000015
:10304000D94E0000C1660000C1080000C5010000A3
:10305000C5360000D8797900C5330000C01B0000D8
:10306000C5830000C4830000C10E0000B30001004E
:10307000CE85010084010000CE1804033900000051
:103080001803033A00000000CE1802033B000000C2
:103090001801033C00000000CF01012020000001C6
:1030A00002000000CF000000CB0000000000000084
:1030B00000000000CB000000000000000000000045
:1030C00000000000CB000404040404000000000021
:1030D00000000000CB000000000000040404040411
:1030E000000000000168E0220B6800219847A06AF8
:1030F0000B2201684B6802A99847B8A0D0E90023C9
:1031000080680490CDE90223A06AF02201680B6870
:1031100000219847A06A0B2201684B6802A99847D2
:10312000B1A0D0E9003280680490CDE90232A06AF3
:10313000802201680B6800219847A06A0B22016871
:103140004B6802A99847ABA0D0E90035D0E902202E
:10315000CDE90135CDE90320A06A902201680B6812
:1031600000219847A06A102201684B6801A998477E
:10317000A4A0D0E90035D0E90220CDE90135CDE9A0
:103180000320A06AA02201680B6800219847A06A6A
:10319000102201684B6801A998479EA0D0E900233E
:1031A00080680490CDE90223A06AB02201680B6810
:1031B00000219847A06A0B2201684B6802A9984732
:1031C00097A0D0E901530268C06801920490CDE94C
:1031D0000253A06AC02201680B6800219847A06AC8
:1031E000102201684B6801A9984791A0D0E90035E9
:1031F000D0E90220CDE90135CDE90320A06AD02233
:1032000001680B6800219847A06A102201684B688A
:1032100001A998478AA0006804908122A06A0168E9
:103220000B6800219847A06A022201684B6804A934
:10323000984784A000680490B122A06A01680B68D6
:1032400000219847A06A022201684B6804A99847A8
:103250007DA000680490B622A06A01680B68002176
:103260009847A06A022201684B6804A998475CA0AD
:10327000006804900022A06A01680B681146984714
:10328000A06A042201684B6804A99847A06A00223A
:1032900001680B681146984714226CA16846FDF737
:1032A000A1F9A06A002201680B6811469847A06A3C
:1032B000112201684B6869469847142268A1684644
:1032C000FDF790F9A06A002201680B681146984743
:1032D000A06A112201684B6869469847A06A0022DB
:1032E00001680B6811219847782001F0B2FBA06AB1
:1032F000772201680B683A21984794F82C0028B18E
:10330000012811D0022808D0032814D0A06A002276
:1033100001680B683621984713E0A06AC022016853
:103320000B68362198470CE0A06A602201680B68A0
:103330003621984705E0A06AA02201680B68362173
:1033400098474CA003C8CDE90301A089401E000A9C
:103350008DF80F00207B401E8DF81000A06A05221A
:1033600001684B6803A9984744A003C8CDE903014D
:10337000208A401E000A8DF80F00207C401E8DF828
:103380001000A06A052201684B6803A99847A06A4B
:103390007F2201680B6851219847A06A2C2201689E
:1033A0000B6853219847A06A022201680B685521D7
:1033B0009847A06A7F2201680B685E219847A06A3F
:1033C000002201680B6828219847A06A0022016842
:1033D0000B6805B01146BDE830401847CBFFFFFF32
:1033E000FFFFFFFFFFFFFF00CC0026090B012500B8
:1033F00000000000CC000000000000000000000001
:10340000260A0C02CC25000000000000000000008D
:1034100000000000CC00250C0A022600000000007D
:10342000CC0000000000000000000000250B090196
:10343000CC2600000000000000000000000000009A
:10344000C5660000C6200000F5060000E100090F77
:103450000E07100B0A04070B080F100A01000000EA
:10346000E200090F0E07100B0A04070B080F100AE1
:10347000010000002A000000000000002B000000F6
:1034800000000000F8B504460F4615461E46099890
:1034900006A9009020460EC900F0D6F8164A044648
:1034A0000260A76284F82C60F2074FF448704FF472
:1034B000F07102D0E060216101E0E1602061002054
:1034C000E08520866086A086E08620870121286826
:1034D0000268284690472868C16828468847142013
:1034E00001F0B7FA2868416828468847142001F09F
:1034F000B0FA2046F8BD0000E86B0008034610B59E
:1035000003F11400044601F0D6FF083350431A7E3D
:1035100050431880204601F0D1FF4843197E4843AC
:10352000588010BD0181428170472DE9F84306465D
:103530001F46DDF820803B46CDF800803068846C63
:103540003046A04700250CE0002406E03068B18C2E
:10355000026D30469047641CA4B2BC42F6D36D1C89
:10356000ADB24545F0D3BDE8F8834184704781840E
:1035700070472DE9F84F044604F114008246FFF726
:10358000B1F9504601F09AFF94F8201010FB01F0B9
:10359000401C81B2504601F08EFF94F8202000912B
:1035A000218910FB02F320686289856C2046A847B8
:1035B0004FF000092CE0002722E0002619E04A46DF
:1035C00031465046FFF79FF9804600250BE0B8F1E1
:1035D000000F01D0E18C00E0618C2068026D204674
:1035E00090476D1CEDB294F82000A842EFD8761CED
:1035F000F6B2504601F05FFFB042E0D87F1CFFB248
:1036000094F82000B842D8D809F1010909F0FF095F
:10361000504601F053FF4845CDD8504601F04BFFCE
:1036200094F82020218912FB00102081BDE8F88F3A
:10363000704730B40D460468818C13462A46E46C0A
:10364000A44630BC604700001FB5069C14220A2126
:10365000FEF736FE0A49016001A90EC9C0E906233A
:10366000416180F820401F2141844CF2186181841F
:103670004FF6FF71C18400210181418104B010BD6A
:10368000446C0008704700002DED028B04469FED4E
:103690000B8A04F11C0505E094ED060A30EE080AD9
:1036A00084ED060A20680A21C26820469047284611
:1036B00001F06AF90028F5D0EEE70000CDCCCC3D52
:1036C000002264211C3001F04BB900F065BD0246B8
:1036D00008B501F0DBF9907B28B1002301F0C8F9AF
:1036E0001BB1002008BD0123F8E70020009008323C
:1036F00001F0CCF9907970B150791168095C0091B2
:10370000D179491E884201DA401C00E00020507146
:103710009079401E907101F0ABF99DF8000008BD52
:103720007CB5044604F10800054602F099F9A8B9F1
:103730002068816820468847012802D002280DD1E0
:1037400006E00120019001A9284602F098F905E061
:10375000022069460090284602F091F9284602F0BE
:103760007FF900280CD1206841682046884703284B
:1037700007D0042804D169460090284602F07FF95A
:103780007CBD0320019001A9284602F078F97CBD98
:1037900010B50069002806D00168896988470128AA
:1037A00003D0022803D0002010BD032010BD042048
:1037B00010BD00002DE9F0410F461646002100F033
:1037C00055FC05460A48286014202C460021217328
:1037D0006173A173E07301F074FEA0602F6126B1E4
:1037E000306829464268304690472846BDE8F08157
:1037F000D06C00082DE9F04107460C46606801686E
:1038000009688847606801684968884747F6FF7615
:1038100000B23246002102F01BF9054660680168DB
:103820008968884700B23246002102F011F9064645
:1038300060680168C9688847002108B1227A0AB126
:1038400040B10FE010222275A581E6812161A561BA
:10385000E6613FE0227A2AB120222275A581E68125
:10386000216137E098B3227A8AB301222275A581BB
:10387000E6812161A269AA4202D1E169B14229D05F
:10388000511B00D549420F2906DCE169891B00293B
:1038900000DA49420F291DDDAA1AE169711A002ACE
:1038A00001DB134600E053425FEA010C00D401E063
:1038B000C1F1000C634503DD03212175226103E0A2
:1038C0000522227549422161A561E66102E0FFE718
:1038D0002175216120720C3407CC07C7BDE8F08147
:1038E000044A02604160002101758181C18101614A
:1038F00070470000E46C00082DE9FC5F80468946B3
:1039000093461E46DDF830A0002436E000EE106A33
:1039100000EE904AB8EE400AB8EE601A00EE904A07
:1039200020EE000AF8EE600A01EE600A01F0E7FD01
:10393000BDEEC00A10EE105A4FF6FF70012300EAE8
:103940004507CDE9007A09EB040081B2D8F8000000
:10395000ABEB0505AAB2D0F828C04046E047CDE958
:10396000007AA9EB040081B2D8F80000AAB20123C2
:10397000856A4046A847641CA4B2B442C6D9BDE8D3
:10398000FC9F40680268126A10472DE9F843174609
:1039900004460E469846DDE90892606801684D6A63
:1039A0001146A847CDF80090434660683A46016842
:1039B0004C6B3146A047BDE8F88340680168096850
:1039C0000847F0B589B005460C4617461E460FAAB3
:1039D0000E9901A8FCF7D2FD0020009068683A46D5
:1039E00001688B6821469847002401AF05E06868AC
:1039F0000268D2689047641CE4B2395D0029F6D1B0
:103A000006E068680168CA6820219047641CE4B237
:103A1000B442F6D309B0F0BD406801684968084770
:103A20002DE9FF5F904681460F46DDE90E2BDE1B38
:103A3000A2EB080ABAF1000F0ED0D81B4442002EA8
:103A400022D0304600DA2046A2EB08025FEA0A01E3
:103A5000C2F1000532D432E09F4200D31F463946FE
:103A6000904500D242461098002ECDE900B000DA11
:103A70007642A2EB5B0082B2D9F80000B3B2846A4E
:103A80004846A047BDE8FF9F9F4200D23B46904575
:103A900000D242461098BAF1000F01DACAF1000ACA
:103AA0001FFA8AF1CDE90010A3EB5B005B4681B2FF
:103AB000D9F80000846A4846A047E3E729468842CF
:103AC0002FDCBAF1000F00DB5546002DDADBBAF12E
:103AD000000F01DB504601E0CAF1000005FB06F1D2
:103AE00091FBF0F03844039001DD284601E0C5F178
:103AF0000000404402905C46002C0EDB0298109BB4
:103B000082B20398204481B2D9F80000D0F824C0D2
:103B10004846E047641E002CF0DA6D1E002DD6DA10
:103B2000B0E7002E00DB3446002CABDB002E01DDBD
:103B3000204601E0C4F100003844039001DB304628
:103B400001E0C6F1000004FB0AF191FBF0F04044F3
:103B500002905D46002D0EDB0298109B284482B235
:103B6000039881B2D9F80000D0F824C04846E04755
:103B70006D1E002DF0DA641E002CD7DA82E7F0B556
:103B800089B005460C4617461E460FAA0E9901A895
:103B9000FCF7F4FC0020009068683A460168CB6AA4
:103BA00021469847002401AF05E068680268D268A2
:103BB0009047641CE4B2395D0029F6D106E06868DC
:103BC0000168CA6820219047641CE4B2B442F6D36D
:103BD00009B0F0BD2DE9FC470446894690469A4657
:103BE000DDE90A750C9E534642464946CDE900562A
:103BF0002068D0F828C02046E04708EB070053466D
:103C0000401B4946CDE9005682B22068D0F828C052
:103C10002046E047CDE9007620682B4642464946DB
:103C2000D0F828C02046E04709EB0A002B46401B8D
:103C30004246CDE9007681B22068866A2046B047C8
:103C4000BDE8FC872DE9F04104460E461746606842
:103C500001684D6A1946A84760683A4601680B6BCF
:103C60003146BDE8F041184710B5044603482060CE
:103C700061602046FFF7A1FE204610BDF06C0008F1
:103C800010B5016CC163D0E903235A4301EB8202F2
:103C900003E0448C8B1CC3630C80C16B9142F8D34E
:103CA00010BD806A00F0DCBB10B5029CC1850286A5
:103CB00043868486C186C36802FB03F4048702FB43
:103CC00003114164026C02EB4101C16310BDC26B80
:103CD000931CC3631180C18E491C8AB2C286C18DF8
:103CE000438E0B4493420BD8C186018F491C018738
:103CF000C268416C11444164026C02EB4101C16332
:103D0000704710B5C4685C43630003EB4202036C68
:103D10001A44C263118010BD2DE9FF410D9C03942C
:103D2000DDE90B460A9DCDE901460095FFF7AAFBA8
:103D30002D49044601600123208A82B2A08981B204
:103D4000A06A00F095FB2046FEF76CFFA089A76AE9
:103D500085B2208A86B225484FF00008C0F800805E
:103D6000042022493C390860384600F079FB20489D
:103D70001F4A783A1168C1F30B411268C2F30A0274
:103D80006B18491C41EA03414160B118521C42EAD8
:103D90000141816002210161C0F81880FF21416169
:103DA00040F20761C161796881626900CA1C42EA18
:103DB0000141C1620663016841F0010101600C49E3
:103DC00001206039086079682164E1630022A06AFB
:103DD00001680B6829219847A06A00F041FB04B0F4
:103DE0002046BDE8F0810000386D0008686C014095
:103DF0008468014010B50446E08A002801D0401EC6
:103E0000E082A06988B1016889698847012808D0E3
:103E1000E08A50B9A08A40B1A06901684969884721
:103E200018B1A08AE082012010BDE06988B1016864
:103E300089698847012808D0E08A50B9A08A40B132
:103E4000E06901684969884718B1A08AE0820220C8
:103E500010BD002010BD00002DE9F0418846174636
:103E60001946DDE906562A46FFF7A4FC04460E482B
:103E70002060C4F81880E7617DB128680168284691
:103E8000884750B128680168284688474FF47A71FE
:103E90004E43B6FBF0F0A08201E00020A082A08A91
:103EA000E0822046BDE8F081946D00080FB42DE952
:103EB000FE430446206801684A694FF4C671904782
:103EC00020680168096888474448002300901A4622
:103ED000206801688D681946A84720680E998DB240
:103EE0000D998BB20C998AB20B994FF47846022740
:103EF00089B2CDE9017600950568ED6AA84720688A
:103F00000C991E398AB20B99354B00930A3103681C
:103F100089B21D6A1423A847206812998DB211999D
:103F20008BB210998AB20F99CDE90176009589B2CA
:103F30000568ED6AA847206810991E398AB20F9962
:103F4000284B00930A31036889B21D6A1423A847DD
:103F500000250526A020CDE901650090A02220685B
:103F60004FF4F0773B460168D1F834C02946E0476A
:103F70004FF4A0780295CDE9008620683B46424682
:103F80000168D1F834C00021E047CDE90076029500
:103F9000A023206800220168D1F834C01946E04708
:103FA000CDE9007602950022206843460168D1F8E9
:103FB00034C04146E047CDE90076029500222068F2
:103FC0003B4601684D6B3946A8472068016849683F
:103FD00003B0BDE8F0035DF814EB08478C6F0008F0
:103FE000A16F0008AB6F00082DE9F74783B00646C4
:103FF0004FF478494FF00A0A0598CDE901A9283015
:10400000049F85B2009530682837DDF81480BBB274
:10401000049CA8F12808D0F800C0283C1FFA88F2B8
:10402000A1B2DCF834C0E047CDE901A91FFA88F05D
:1040300000903068A1B2BBB20268546B2A46A04718
:1040400006B0BDE8F087026806E08A4201D1002090
:104050007047536813B11A46002AF6D10AB151606D
:1040600000E00160012070477047000010B5044671
:1040700008460549216000216160002802D02146E0
:10408000FFF7E1FF204610BD2C6F000810B5046853
:1040900004E020680168204688476468002CF8D155
:1040A00010BD00210160704770B504460D462068C0
:1040B000E9688268204690470548016841F08051D0
:1040C00001602068E96842682046BDE870401047FA
:1040D00004ED00E010B50446207C00280BD0002041
:1040E000207460692146FFF7DFFF2068416A20469F
:1040F000BDE81040084710BD70B504460D46FEF7F8
:104100003FFA05446069214600F058F8FEF738FA96
:10411000A842F7D370BD10B50446207C00280BD10F
:10412000012020742068016A204688476069214682
:10413000BDE8104000F04AB810BD10B50446207C20
:1041400000280AD0002020742068416A2046884751
:1041500060692146FFF7A8FFFEE710BD7047704772
:1041600010B504462068C169204688472068416927
:1041700020468847002010BD10B504461046054B68
:1041800023606161A060FCF72BF96060002020745F
:10419000204610BD386F000810B504460648206060
:1041A0002046FFF797FF606808B1FCF748F9002048
:1041B0006060204610BD0000386F000802480168AA
:1041C00041F080510160704704ED00E070B5054694
:1041D0000C4600F05BFCD4E901101C4EC91C21F018
:1041E0000301001F0B18C83B194680318C62002266
:1041F000CA620A634A638A6326F0010008641448AD
:1042000020F00100C8634FF0045048640A604A601F
:104210008A60CA600A614A618A61CA610A62D01F03
:10422000486280399FED0B0A01EB820080ED000AA5
:10423000521C202AF8DB1946286802682846904755
:10424000054600F015FCE560284670BD6141000898
:104250007D250008000000004FF47A707047FEF7DB
:104260008FB9000070B50D4600F0ACFB0446044861
:10427000206000222946204600F060FB204670BDE9
:10428000686F000830B40446002901D0012200E024
:104290000022034800680168CB68214630BC1847FB
:1042A000EC010220024901600249086070470000E9
:1042B000A86D0008EC01022010B503688B420CDAEF
:1042C000846823448B4208DD4168914205DAC06866
:1042D0000844904201DD012010BD002010BD10B542
:1042E000029C016042608360C46010BD10B503464B
:1042F0000C4600F0CBFB187C48B1002203EB820097
:10430000806830F8142000F0B3FB104610BD012285
:10431000F4E710B504462068416920468847014605
:10432000207C08B1012000E00020A27E04EB800088
:10433000806820F81210E07E401CC0B2E076617EFA
:10434000884208D26169095CA176206882692046AA
:10435000BDE8104010470020E07661690978A17639
:10436000207710BDF0B4067E8E4220D90023447E13
:1043700008E04569ED5C8D4203D10368DB69F0BC60
:1043800018475B1C9C42F4DCB44210D285680023C1
:1043900025F81430457EC46824F81530437E5C1C33
:1043A00044764469E1540368DB69F0BC1847F0BC0B
:1043B0007047417E002911D0017F00290ED1C176BE
:1043C000416909788176027C32B1002202740122AF
:1043D00002770268926910470122F7E770470000F0
:1043E0002DE9F0410E4615460021FFF73FFE044639
:1043F0000F48206025B1286821464268284690472A
:104400000025A576E576657626767700384601F0B4
:1044100058F8A060384601F054F8E060304601F0EA
:1044200050F86061257425772046BDE8F0810000D2
:10443000C06D0008014A026001717047E86D000814
:1044400006480368DB07FCD00802044940EA024042
:10445000083940F01500086070470000746C014096
:104460000248416841F0040141607047007001401A
:104470002DE9F0470D4690469946564C606820F06D
:1044800008006060544E306820F0010030605249EE
:104490009C31086820F004000860086820F00200E1
:1044A0000860206B20F001002063206B20F08070FA
:1044B0002063206B40F080702063E068C004FCD56E
:1044C0009FED460B206B474A10402063206B42F65D
:1044D000901210432063206B40F001002063E068DD
:1044E000C005FCD5062008603B48012790300760D6
:1044F00040F601203849A031086004203649091DE2
:1045000008609FED391B51EC100B53EC112B01F09F
:1045100089FD41EC100B53EC102B9FED350B51EC4A
:10452000100B01F0E7FB01F03DFD80B2A0612A49CC
:104530000020C0310860091D0860274930310F6034
:104540000B2121602449083108602349103108609B
:104550000521214A0C3211601F4960310D601E4A4D
:10456000254964321160B9F1000F21D02349086058
:104570004FF00112214B103B1A6052001B1D1A60B4
:10458000AD1C08F102081B1D48EA05421A606D1CAB
:1045900008F101080B1F48EA05421A60174A143255
:1045A0001060164A1C321060086840F00100086074
:1045B000306840F001003060606840F008006060E2
:1045C00005494FF0231094310860091D0C4808601C
:1045D000BDE8F08700700140046C0140000000005D
:1045E00065CDBD410386FCFF95D626E80B2EF13D37
:1045F000000000000000F03F007F0E00186801403E
:104600000000232370B500200E4B1C68E407FCD08B
:104610000C4D2D1F0CE00B180C5C5E7844EA062450
:104620009E78DB78360446EA03631C432C60001D49
:104630009042F0D390B2392141EA00200149083973
:10464000086070BD746C014070B50546234C20684D
:1046500020F4F84040F4C0502060A0682049084091
:1046600040F48310A06068788000A0F1C040D0F8CA
:1046700040116FF3090141F4F271C0F840116878FC
:104680008000A0F1C040D0F84811164A1140164AE7
:104690001143C0F84811012228460023114600F0BA
:1046A00025F8012000F0D5F9002328460122022137
:1046B00000F01CF8002328460822032100F016F819
:1046C0004FF40C7328460122042100F00FF86069B2
:1046D00040F65E410843606170BD0000400100A0EB
:1046E000FF0F0FFF00F0F0F06103010110B58478B7
:1046F000002C03D0022914D0032912D0407890B1A5
:104700000120521E41EAC00040EA421040EA432123
:104710004FF02040C0F85011D0F858118906FBD452
:1047200010BD0320EDE70220EBE7000070B5044662
:1047300001F00F00207008096070A2704FF404555A
:1047400069202946FDF7C6FF6A202946FDF7C2FF0A
:1047500075202946FDF7BEFF80202946FDF7BAFFE8
:1047600083202946FDF7B6FF84202946FDF7B2FFD6
:1047700085202946FDF7AEFF86202946FDF7AAFFD2
:1047800087202946FDF7A6FF88202946FDF7A2FFCE
:104790006B202946FDF79EFF6C202946FDF79AFF06
:1047A0006D202946FDF796FF6E202946FDF792FF02
:1047B0006F202946FDF78EFF70202946FDF78AFFFE
:1047C00071202946FDF786FF72202946FDF782FFFA
:1047D00073202946FDF77EFF74202946FDF77AFFF6
:1047E00076202946FDF776FF77202946FDF772FFF0
:1047F00078202946FDF76EFF79202946FDF76AFFEC
:104800007A202946FDF766FF7B202946FDF762FFE7
:104810007C202946FDF75EFF7D202946FDF75AFFE3
:104820007E202946FDF756FF7F202946FDF752FFDF
:1048300081202946FDF74EFF82202946FDF74AFFD9
:104840008A202946FDF746FF8B202946FDF742FFC7
:104850004A202946FDF73EFF4B202946FDF73AFF47
:1048600056202946FDF736FF5D202946FDF732FF29
:104870005E202946FDF72EFF5F202946FDF72AFF1F
:1048800060202946FDF726FF61202946FDF722FF1B
:1048900062202946FDF71EFF63202946FDF71AFF17
:1048A0004C202946FDF716FF4D202946FDF712FF43
:1048B0004E202946FDF70EFF4F202946FDF70AFF3F
:1048C00050202946FDF706FF51202946FDF702FF3B
:1048D00098202946FDF7FEFE99202946FDF7FAFEAD
:1048E0009C202946FDF7F6FE96202946FDF7F2FEAC
:1048F0009A202946FDF7EEFE9D202946FDF7EAFEA7
:104900008C202946FDF7E6FE8D202946FDF7E2FEC4
:104910000648016841F0010101602078022802D1B7
:104920002046FFF791FE204670BD00003838024057
:1049300001490160704700000C6E000870B5054623
:104940000C461646286843682846984704EB4401FD
:10495000C1EBC41106EBC101B1FBF0F0A86070BD62
:1049600010B504462046FFF7E9FF2046BDE8104099
:10497000AFF3008010B504462068016820468847E0
:1049800060600120207310BD70B504460025207BB7
:1049900000280DD020680168204688476168401AC9
:1049A000A168884201D300202073207B18B1002524
:1049B000207B10B104E00125FAE72046FFF7DAFF7B
:1049C000284670BD02490160002101738160704773
:1049D0001C6E0008C168406802681269104710B573
:1049E00004466068016849698847E168084201D067
:1049F000012010BD002010BD034630B40C005868E3
:104A0000D968026802D0926830BC1047126930BC85
:104A10001047C16840680268926810470A46017AE8
:104A2000406803685B681847034B0360416002728B
:104A300001219140C1607047786F00084FF6FF7107
:104A400001EA800002E000BF401E80B20028FAD1D7
:104A50007047024600B54FF47A7304E01846FFF73A
:104A6000EDFF521E92B2002AF8D100BD704700003F
:104A700005490878002801D0401E087008780028F1
:104A800000D162B6704700007401022072B602487D
:104A90000178491C0170704774010220024600B57C
:104AA000FFF7E4FF09B1FFF7F1FF104600BD00007A
:104AB000044801F01F01C162016841F080410160BA
:104AC000704700000822014030B502F007040D4D88
:104AD00008290CD00C2909D103210120FDF7FAFD8A
:104AE000D5F80C0240EA8410C5F80C0230BD032151
:104AF0000020FDF7EFFDD5F8100240EA0460C5F88C
:104B0000100230BD002001400148006880B27047AB
:104B10004C22014010B50A461021FFF761FC044603
:104B20000C4820600C48C4600C48016841F4806166
:104B300001600B48D0F8001141F44031C0F8001179
:104B400040F601014160202101601220FDF7C6FA04
:104B5000204610BD2C6E000874010220443802402B
:104B600004220140002A21F00F0004D0012A01D1C3
:104B700003490860704702490C390860704700001B
:104B80001874004010B50B4C00290AD0012907D138
:104B900003210920FDF79EFD206840F4403020608D
:104BA00010BD03210820FDF795FD206840F00300AB
:104BB000206010BD0074004000B50221FFF73AFCF0
:104BC0000349016003490A6842F000520A6000BDCF
:104BD000546E00084038024030B52E48026802F09A
:104BE0000F030268C2F3021202EB820203EB4203DC
:104BF000CB710268C2F303240268C2F3023202EBF3
:104C0000820204EB42028A710268C2F30344026822
:104C1000C2F3015202EB820204EB42024A71021D0E
:104C20001468C4F342340C71146804F00F0514685E
:104C3000C4F3011404EB840405EB4404CC70146841
:104C4000C4F303251468C4F3003404EB840405EBB7
:104C500044048C7014681268C4F30344C2F3035212
:104C600002EB820204EB4202D2B20A8004680068BE
:104C700004F00F04C0F3021000EB800004EB4000CE
:104C800002F5FA620A80834201D8012030BD00207B
:104C900030BD0000002800400A4610B5FFF748FE6E
:104CA0002949016029490B6843F480730B60284946
:104CB000012A01D052B11EE00B6823F440730B604F
:104CC0000B6848F2011423430B6014E00B6813F4E3
:104CD000407F07D10B6843F480330B600B6823F4EB
:104CE00080330B600B6823F440730B600B6848F251
:104CF000013423430B60164968390B6823F4F81319
:104D00000B600B6843F4C8130B601249CA230B6095
:104D100053230B600F4918390B6843F080030B6075
:104D20000B685B06FCD5012A09D042B9094A41F655
:104D30003F73143A1360136843F4F80313600A686E
:104D400022F080020A6010BD686E0008007000400A
:104D500070380240242800400830FFF797B94068B7
:104D600070470830FFF76FB980887047C088704778
:104D7000007A7047044B0360418182810021818069
:104D8000C180017270470000946E000850F8841FC3
:104D90000A6902F060420A6101680A6942F400226D
:104DA0000A610068016841F0044101607047000039
:104DB00070B590F8814090F883108C4200D30C4677
:104DC000E11C8B08D0F88410896989B299420FD30D
:104DD000411C002280F8812080F8822006E0D0F873
:104DE000886051F8045B3560521C92B29A42F6D347
:104DF000002C06D103490A680378012098408243B9
:104E00000A6070BD34080050D0F88400816070479B
:104E1000074909680278D140054A01F00101243AA6
:104E2000126842EAC111D0F88400806808407047D7
:104E30003408005070B580F883100378002B00D13F
:104E400000210C4C256801269E40B3B21D4325600D
:104E5000D0F884301C6824040BD41C68C1F30A0108
:104E600000780C43910441EA805004430248044313
:104E70001C6070BD1C0800500080001010B490F839
:104E8000833090F881401A46944200D2224690F82E
:104E9000824004B312B3D118491E91FBF3F1CBB297
:104EA00050F8841F0C6904F060440C6101680C69BF
:104EB00042EAC34214430C610B490A68012310F80B
:104EC000844CA3401A430A600068016841F0044121
:104ED000016010BC704710BCFFF758BF0029F8D024
:104EE00010BCFFF753BF00003408005050F8841F77
:104EF0000A6902F060420A6101680A6910F8013C1F
:104F00001A4342F400220A610068016841F004413A
:104F100001607047D0F8840081607047D0F8840049
:104F20008068024909680840704700001408005072
:104F300010B5CA1C9308421C80F88110012180F82A
:104F40008210002106E0D0F88840246842F8044B23
:104F5000491C89B29942F6D310BD000070B480F8A4
:104F600083100378002B00D100210E4C2668012508
:104F70009D4046EA05432360D0F884301C68240431
:104F800008D41C68C1F30A010C43074941EA824175
:104F90000C431C600178002902D070BC00F006B8F8
:104FA00070BC70471C0800500080001010B490F8CE
:104FB000831090F881208A4201D2134600E00B460C
:104FC000C3B14B1E1A4492FBF1F2D2B250F8843FA7
:104FD0001C6904F060441C6103681C69514362F35E
:104FE000DF410C431C610068016841F0044101602D
:104FF00010BC704710BCFFF779BF4FF0A04042696A
:105000000A43426170470000034800680249091DD5
:105010000968084080B270471808005003480068CB
:105020000249091D09680840000C70471808005023
:105030004FF0A040426980690240914301D00020B6
:1050400070470120704700002DE9F05F05464FF0E2
:10505000A049D9F81400C0077ED102212846FFF7E5
:10506000E7FF18B102212846FFF7C7FF4FF40021E0
:105070002846FFF7DDFF05F14C0AE0B32846FFF7AD
:10508000CDFF06464FF0000839E0F00730D0C8EBFE
:10509000C80000EB800005EB800404F51F74204677
:1050A000FFF73CFF0746F8070CD02046FFF77EFFCE
:1050B0002868002241460368284698470121204677
:1050C000FFF728FF38070DD5286801220021036863
:1050D0002846984701215046FFF7D0FE0821204678
:1050E000FFF718FFF80603D510212046FFF712FF3F
:1050F00008F1010800E004E008F0FF087608002E3F
:10510000C3D14FF480212846FFF792FF05F51F7B9E
:10511000F0B32846FFF778FF804600274FE05FEAAC
:10512000C87048D0C7EBC70000EB800005EB8004D7
:105130004C342046FFF76CFE0646F00718D077493E
:105140000120B840C043086001212046FFF75CFE03
:105150005846FFF7CBFE00E0DEE02868012247F06A
:10516000800103682846984700212046FFF786FE05
:10517000300703D508212046FFF746FEF00603D589
:1051800010212046FFF740FE700605D5204600E0BE
:1051900018E04021FFF738FEB00703D50221204672
:1051A000FFF732FE300606D52046FFF701FE8021CC
:1051B0002046FFF729FE7F1CFFB24FEA5808B8F1DE
:1051C000000FACD14FF0004328461946FFF730FFDF
:1051D000524C303C38B1206820F001002060194664
:1051E0002846FFF70AFF4FF4006328461946FFF7E9
:1051F0001FFF18B119462846FFF7FFFE4FF48056EF
:1052000028463146FFF714FF38B1286882682846DF
:10521000904731462846FFF7F0FE4FF400562846E7
:105220003146FFF705FFE8B1206840F48070206048
:10523000D9F80C0020F47050C9F80C00D9F80C0013
:1052400040F4A050C9F80C00002258464021FFF756
:1052500085FE002250464021FFF7ECFD31462846EE
:10526000FFF7CBFE10212846FFF7E2FE98B3D9F8EE
:10527000180020F01000C9F81800D9F8200000F03C
:105280000F01C0F34342022A02D0062A12D01CE0CA
:1052900047F6F072104218D0C1EBC10101EB810159
:1052A00005EB810202F51F72C0F30A111046FFF7E9
:1052B0003FFE0AE0C1EBC100082100EB800005EBD6
:1052C000800000F51F70FFF733FED9F8180040F09A
:1052D0001000C9F8180008212846FFF7A9FE18B1E8
:1052E00008212846FFF789FE4FF0804328461946DB
:1052F000FFF79EFE18B119462846FFF77EFE0421EF
:105300002846FFF795FE002806D0D9F80400D9F802
:1053100004100143C9F80410BDE8F09F34080050A0
:105320002DE9F04705464806000E4FF0010C0CFA37
:1053300001FC6FEA0C0803238340DF4300260023AF
:1053400000244FEA41094FF001015FEAC27A01FAF5
:1053500009F100D00E465FEA427900D50B461107ED
:1053600002D5022181400B43900700D56446FFF728
:105370008DFB686801683940314301606868C16825
:1053800039401943C1606868416801EA0801214356
:105390004160BDE8F047FFF76BBB406809048161DD
:1053A000704740680069704740688161704700003D
:1053B000284A02600A29284A0CD2DFE801F0050CCD
:1053C000131A21282F363D4424494160116841F0C9
:1053D00001011160704722494160116841F00201EA
:1053E000116070471F494160116841F0040111606C
:1053F00070471D494160116841F008011160704714
:105400001A494160116841F0100111607047184954
:105410004160116841F020011160704715494160F9
:10542000116841F0400111607047134941601168F3
:1054300041F080011160704710494160116841F4EA
:105440008071116070470E494160116841F400712C
:1054500011607047C46E00083038024000000240FE
:105460000004024000080240000C0240001002400C
:105470000014024000180240001C024000200240BC
:105480000024024010B50446A069C169490607D549
:10549000016A41F0400101622068C16920468847E5
:1054A000A069C069800605D5206881692046BDE8ED
:1054B0001040084710BD0068C07870470068007948
:1054C0007047FAF78DBFFAF78BBF03B4019841001C
:1054D000009850EAC12018BF04204A0D18BF40F0C0
:1054E000010040F2FF72B2EB515F08BF40F00200D2
:1054F000012808BF052002B07047FBF751F810B52E
:105500002DED028BB1EEC08A18EE100A20F000409B
:10551000C0F1FF40C00F0AD010EE100A20F000408A
:10552000C0F1FF40C00F04BF0120FBF704F9B0EE4B
:10553000480ABDEC028B10BD30B52DED028B87B053
:10554000AE480021FFF7AAFAAD4804214FF47A7261
:10555000FCF7C4FEAA48022142F210721830FCF790
:10556000BDFEA64800210830FFF722FFA348012115
:105570001030FFF71DFFA14802211830FFF718FF78
:105580009E4803212030FFF713FF9C480421283058
:10559000FFF70EFF994805213030FFF709FF9748C4
:1055A00008213830FFF704FF944809214030FFF705
:1055B000FFFE934901F13000FFF7ACFA00239FEDA5
:1055C000918A8F491A46DFED908A3031F0EE480A11
:1055D000B0EE680A01F12000FDF7B2FA87484830C2
:1055E000FFF7EAFA85490022854848316430F0EE39
:1055F000480AB0EE680AFDF703FB8048002202214A
:10560000401CFFF793F87D485030A0F14F014978D6
:1056100000297DD04FF050417C4A026041607C49B6
:10562000086840F08060086079482038026842F0DD
:1056300080620260026822F0806202600A6842F0C2
:1056400000620A60016841F000610160016821F0B8
:105650000061016069490F22694840317830FFF7E5
:10566000E3F96C4904A84A1DFDF763F90220039091
:1056700004A8012307C88DE80700614A5F49783212
:10568000503102F11000FEF747FB5D495B4888315D
:105690005830FEF7E9FA5A48012303220421D0309A
:1056A000FDF7A6F95649D03101F10C00FDF78AFA51
:1056B0005349DC3101F11C00FEF712F94F49012476
:1056C00055480423082200943031FCF739FF4B4938
:1056D000042351480622083100941830FCF730FFAB
:1056E000464904234C480922303100943030FCF7FD
:1056F00027FF78204249484A01F5A473CDE90010FC
:1057000001F5987101F13000FEF7A6FB002300E0DF
:1057100071E03A491A464048083100946830FCF775
:105720000FFF364900243C4801230D2200944031EC
:105730008030FCF705FF31480021001DFFF7ACFA6F
:105740002F4901F5D870FDF761F83348B430A0F166
:105750001C01FDF739F831490160846064252E4849
:10576000C030FEF79FFD2E49016044628462002133
:1057700000EBC1029460491C0429F9DB4460072155
:105780008160ACB22748284A10604FF0E0252961BB
:10579000204600F034FC9FED252B53EC122B00F03B
:1057A00041FC9FED240B53EC102B00F039FD00F071
:1057B000F9FB6861214804601748F030A0F130011E
:1057C0004FF4FA72FEF7D8FC1D4940F81C1B00216B
:1057D000FEF748FDA0F11C0484ED068A2046FEF782
:1057E0009AFC2046174A07B01749BDEC028BBDE86A
:1057F0003040FAF7E0BE4FF040410DE714010220BF
:10580000F00102200000000033335340FC6D00081B
:1058100044380240EE640008080302206C6B000864
:10582000AC6E0008854200087801022000000000EC
:1058300000006940000000000000F03FE801022085
:10584000A06C000800000008CB36000830380A2899
:1058500001D2012070470020704700009EB0002454
:10586000534909A809910A91642540F226262A463F
:10587000C823314608300095FEF731FD083831461F
:10588000C823009518304FF49672FEF728FD0026C5
:1058900080F8386009A80FA9001D2EC9CDE903358D
:1058A000CDE901120E9900910BA90EC9FEF7FEFA7F
:1058B000404F07F13C083F486C38FDF708FF0128CE
:1058C00004D0022804D0032805D103E0641E02E0BE
:1058D000641C00E00024364807A95438FFF77CF91F
:1058E000B86835A114230022CDE900103048012109
:1058F000FEF767F8D8F8180000F07CFDCDE902014A
:1059000031A000902A48142300220221FEF759F802
:1059100028484C38FCF7EAFD9DF823102FA2CDE96A
:105920000020234814230022CDE902410321FEF781
:1059300048F8204D4C3D95F8049028684169284668
:105940008847287110B1B9F1000F01D010B106E0FD
:10595000012005E0B9F1000F01D0022000E030463F
:10596000012807D1134834384179C1B100210268B8
:10597000526890471F48FCF715FE1E481430FCF78C
:1059800067FF1C49A83104A8FDF734FF9DF8740097
:1059900038B104A909A80EC9FCF7EFFB8BE7012178
:1059A000E5E704A909A80EC9FCF7A5FB83E70000F9
:1059B0006C010220BC03022054696D65722D546194
:1059C000736B3A202564000052544F532D54617379
:1059D0006B3A2020252E31660000000042544E3ADA
:1059E000256420456E633A253264205254433A259B
:1059F000326400004002022010B500290AD0087865
:105A0000002807D005487844FBF7ECFD002801D0BA
:105A1000002010BD0248784410BD0000D2150000DF
:105A2000CA15000010B500290AD00878002807D050
:105A300005487844FBF7D6FD002801D0002010BDB2
:105A40000248784410BD0000C2150000BA150000DD
:105A5000904201DD104670478842FCDA08467047E4
:105A6000024600B5FFF712F89079D179884201D348
:105A7000012200E00022FEF7FBFF104600BD30B51A
:105A800002460C460023FFF701F89079D579A84229
:105A900010D2137911682078C854D1791079491E31
:105AA000884201DA401C00E0002010719079401C0F
:105AB00090710123FEF7DCFF184630BD024610B599
:105AC000906A002801D1012090620324002002EB9B
:105AD000C0039B6823B1401C0428F8DB002010BDE4
