:020000040800F2
:10000000901A00207902000881020008830200088B
:10001000850200088702000889020008000000002D
:100020000000000000000000000000008B0200083B
:100030008D02000800000000491B0008751B000825
:10004000930200089302000893020008930200083C
:10005000930200089302000893020008930200082C
:10006000930200089302000893020008930200081C
:10007000930200089302000893020008930200080C
:100080009302000893020008211B00089302000855
:10009000851D0008930200089302000893020008DF
:1000A00093020008930200089302000893020008DC
:1000B000F51C0008051D0008151D00089302000826
:1000C00093020008930200089302000893020008BC
:1000D00093020008551D0008651D0008751D0008E5
:1000E000930200089302000893020008351D0008DF
:1000F000451D000800000000251D000893020008AF
:1001000000000000000000009302000893020008B5
:10011000930200089302000893020008930200086B
:100120009302000800F002F800F096F80AA090E8A8
:10013000000C82448344AAF10107DA4501D100F0A2
:100140008BF8AFF2090EBAE80F0013F0010F18BFD9
:10015000FB1A43F0010318472C3E00004C3E000000
:10016000103A24BF78C878C1FAD8520724BF30C8E3
:1001700030C144BF04680C607047000000230024B5
:1001800000250026103A28BF78C1FBD8520728BFA7
:1001900030C148BF0B6070476E2900F02382702980
:1001A00000F06D83662903F06A85652903F0678591
:1001B000672903F064856129AFF3008003681B0A97
:1001C00028BF41F08001692900F0D081642900F046
:1001D000CD81752900F0CA816F2900F0FA82782953
:1001E00000F03983E92900F09582E42900F0928239
:1001F000F52900F08F82EF2900F0F782F82900F04E
:1002000038830368DB0928BF41F08001632900F0CF
:10021000E386732900F0E886E32900F0F386F329EA
:1002200000F0F886002070471FB59DE8030000F03D
:1002300005F900F065FF04000020002103F010F82C
:10024000401C60600020002102F0F4FFE06000F03C
:10025000C1F81FBD10B510BD00F025FF1146FFF716
:10026000E3FF02F011FF01F001F803B4FFF7F2FF22
:1002700003BC00F0C1F80000094880470948004766
:10028000FEE7FEE7FEE7FEE7FEE7FEE7FEE7FEE746
:10029000FEE7FEE704480549054A064B70470000A3
:1002A000B11B00082501000890020020901A0020D0
:1002B000900E0020900E0020EFF3088020E9F00F50
:1002C00080F30888704780F30888EFF30880B0E86F
:1002D000F00F80F30888704770B5064600F092F87A
:1002E000056806F10B0020F00704B4429CBF002013
:1002F00070BD2B466A68BAB11068A04210D304F1F1
:10030000080188423CBF5068586007D351681019F3
:1003100041601168091B016058601460101D70BDB8
:1003200013465268002AE7D12146284600F072F8A9
:100330000028DED170BD70B50446051F00F062F8DC
:100340000068002C14BF446870BD002C18BFAC427C
:100350003CBF20466468F8D301680A18AA4218BF57
:10036000456003D12A680546114401602868411997
:10037000A1421CBF6C6070BD61686960216808445F
:10038000286070BD7CB51D4616460C00009001D05B
:100390002044401E074B7B442A4669460190304664
:1003A00000F039F905461CB10020694600F046F915
:1003B00028467CBDAD02000010B5002000F02EFBE9
:1003C000FFF748FFBDE81040012000F015B8704766
:1003D0007047704770B5064C7C44064D7D4403E081
:1003E000206820448047241DAC42F9D170BD000034
:1003F000F43C0000F43C000001491820ABBEFEE7CD
:1004000026000200004870473802002070477047FD
:100410007047704738B504460A4600206946AFF376
:100420000080002808BF38BD02460099204600F031
:1004300002FB012038BD012000F02EBEF8B5AFF35D
:100440000080054600200C46102000BF0646A81973
:10045000A0420DD9324669460020AFF30080070064
:1004600008BF00F019FE0098A04218BF0546C41945
:10047000FFF7C8FF05600746F01D20F0070046198A
:10048000284600F00AF8B44208BFF8BDA21B314666
:100490003868BDE8F84000F0CEBA00210160C0E93C
:1004A000011070471020704770B5044685690068D8
:1004B000C10601D5302600E02026C00707D070BD58
:1004C000D4E9012130469047206A401C20626D1E0D
:1004D000F6D570BD70B5044685690078C00707D1B0
:1004E00070BDD4E9012120209047206A401C206281
:1004F0006D1EF6D570BD09684A0501D540B270473A
:10050000C905FCD500B2704709684A0501D5C0B2DB
:100510007047C905FCD580B2704770B50C460546DA
:10052000012A05D02878800600D5EA69002302E078
:10053000012305E05B1C934202D2E05C0028F9D164
:10054000A869E618C01AA861286A184428622846D3
:10055000FFF7AAFF04E0D5E9012114F8010B904749
:10056000B442F8D32846FFF7B5FF70BD2DE9F0413E
:100570000646002410687529314616A510D0FFF7ED
:10058000BAFF002802DA404213A507E031688A0763
:1005900001D512A502E0490704D511A5012401E007
:1005A000FFF7B2FF00210A2206F1240709E0B0FBA1
:1005B000F2FCB0FBF2F302FB1C003030785418461A
:1005C000491C0028F3D123462A463046BDE8F041B5
:1005D00000F090BA000000002D0000002B00000089
:1005E0002000000011680268006A530501D50870F8
:1005F0000AE0D30501D5088006E0130603D5C2172B
:10060000C1E9000200E008600120704701694A1C4E
:1006100002610878704700B58FB0CDE90131002143
:10062000059105497944CDE903101146684600F06B
:1006300031F90FB000BD0000E5FFFFFF0A6802F8C6
:10064000010B0A607047D1E900239A4202D2531C81
:100650000B601070704700002DE9FF5F15468A4659
:100660000446DFF8AC80F8440027D8E900103E4685
:10067000CDE9001010E03AF816106A4602A800F022
:10068000CDFC411C07D02178890603D5E2693918D1
:1006900091420DD80744761C2078800602D5E06987
:1006A000B84205DDAE42E6DB3AF816000028E2D19A
:1006B000A069C01BA0612046FFF7F6FED8E9001034
:1006C000CDE90010002017E03AF818106A4602A899
:1006D00000F0A4FCB0F1FF3F81460BD000250DF1E6
:1006E000080B05E0D4E901211BF8050090476D1CBB
:1006F0004D45F7D308F10100B0428046E4DB206AA3
:10070000384420622046FFF7E5FEBDE8FF9F000069
:100710001A3600002DE9F0418046D21D22F0070272
:100720000025D2E90002F52915A614D0011E72F1A8
:10073000000106DA0023D0EB030063EB020211A6EE
:1007400008E0D8F800108B0701D50FA602E0490792
:1007500001D50EA601251146002408F1240704E066
:1007600000F083F930323A55641C50EA0102F7D1A7
:100770002B46324621464046BDE8F04100F0BAB96A
:10078000000000002D0000002B00000020000000F1
:1007900030B4002100F1240408E002F00705D2087B
:1007A000303542EA4372DB086554491C52EA0305BE
:1007B000F3D10468002310A2250707D5A40600D4AE
:1007C00021B1C46901230DA2641EC46130BC00F0D4
:1007D00091B910B5044621461068FFF795FE024610
:1007E0002046BDE810400023D2E7D21D22F00701C9
:1007F000D1E90023CCE70000000000003000000039
:10080000F0B40D460188090502D5214C7C4402E074
:100810001F4C7C440E34002100F1240608E002F055
:100820000F071209E75D42EA03721B097754491C5E
:1008300052EA0307F3D102780023120704D5702D82
:1008400006D009B1022311342246F0BC00F052B99F
:1008500001231034F8E770B504460D4621461068B0
:10086000FFF752FE024629462046BDE870400023AD
:10087000C6E7D21D22F00703D3E90023C0E70368CF
:10088000126843F0200303600823C3610023B7E725
:100890007C3400002DE9F05F894604464FF0000AE1
:1008A000DFF874B1FB44C0F820A02046E168884717
:1008B000002874D0252806D0D4E901219047206A69
:1008C000401C2062F1E700265F462046E168884729
:1008D0002028054607DB312D05D2781910F8200CA9
:1008E00008B10643F1E7B00701D526F00406C4F8C5
:1008F0001CA00027C4F818A02A2D09D0284602F011
:10090000BBFB38B304EB8708303DC8F8185019E03A
:1009100059F8041B204604EB87029161E16888477F
:10092000012F054618D1E069002820DA26F02006BC
:100930001DE0D8F8180000EB800005EB40003038CF
:10094000C8F818002046E1688847054602F094FB85
:100950000028EED1012F0AD02E2D08D12046E168C3
:1009600088477F1C0546022F46F02006C4DBA0699D
:10097000002803DA404246F00106A061F00701D0EA
:1009800026F010066C2D0BD0682D09D04C2D39D0D7
:100990006A2D35D0742D35D07A2D33D016E038E05D
:1009A000E1682F4620468847B842054609D16C2F9A
:1009B00026D04FF48060E16806432046884705460C
:1009C00004E06C2F1AD04FF4807006430DB3A5F1EC
:1009D0004100192802D8203546F400664A462946C7
:1009E000204626604E46FFF7D7FB80B101280BD08A
:1009F000F61D26F0070000F1080956E74020E4E75D
:100A00008020D8E70020D6E706F104094DE7284604
:100A100052E7206ABDE8F09F0C34000010B500F0EA
:100A200023FBBDE8104000F019BB000000487047F0
:100A3000300200207047034640688C46002818BFEB
:100A400088423CBF03464068F8D31868184488427F
:100A500007D00CF1030020F00700001D411A521AC4
:100A60000146081D0A60FFF766BC30B5B0F10A0206
:100A70004FEA900E71F100034EEA817EB0EB0E005A
:100A800061EB91014FEA101E4EEA017E10EB0E0061
:100A900041EB11114FEA102E4EEA016E10EB0E00E1
:100AA00041EB11214FEA104E4EEA014E10EB0E00C1
:100AB00041EB1141401841F100014FEAD00040EAFA
:100AC00041704FEAD10110EB80054FEA810444EAFE
:100AD000907444EB01046D1944EB0404521BA341D0
:100AE0004FF0000348BF0A3200D530BD401C41F131
:100AF000000130BD2DE9F0470D4699469246044667
:100B000000F124080168880604D5E06921F010018D
:100B1000216000E00120A84201DD471B00E0002722
:100B2000A1697A1902EB0900081AA0612078C006B1
:100B300002D42046FFF7B8FC002608E0D4E90121E2
:100B40001AF806009047206A401C761C20624E4529
:100B5000F4DB2078C0060AD52046FFF7A5FC06E0A6
:100B6000D4E9012130209047206A401C2062381EC1
:100B7000A7F10107F4DC07E0D4E9012118F805002A
:100B80009047206A401C2062281EA5F10105F3DC75
:100B90002046FFF79FFC2078000602D50220BDE822
:100BA000F0870120FBE770472DE9FF4F0C461E46FA
:100BB0004FF0FF378BB0D2E90001DDF860800A907A
:100BC0008A46C1F30A5505B93D46002108464FF053
:100BD0000000BAF1000F00F4400005DA00EB8000DD
:100BE0004FF4400101EA50004FEA9059B9F1010F6A
:100BF00000DDB9460A9850EA4A000ED044F610507B
:100C0000A5F2FF3545432F14B8F1000F1ED07542F1
:100C1000291E1EDDC9F100021CE0B8F1010F4FF0E2
:100C2000000001D0302103E0F24305E02154401CD4
:100C3000B042FBDB30460022002121540B99C1F861
:100C40000880C1E900200FB0BDE8F08FBD1B6D1C0E
:100C5000DEE74A4600DA694206A800F095FA06ABDC
:100C600093E8070003AB83E8070050460A9900F0B9
:100C70008FFB8DE80700A0F500501F380090039807
:100C8000002D0ADD42F21F014A460844002303A951
:100C90000390684600F0F8FD09E0A0F500504A46D0
:100CA0001F38002303A90390684600F002FE8DE878
:100CB00007000004000C03D04FF0FF30410800E0B3
:100CC0001046B8F1000F03D00022009215461EE036
:100CD000751E05D4FFF7C9FE303262556D1EF9D579
:100CE000B3460122084302D000227F1C04E0207892
:100CF000302801D100227F1E002A099784D01DE0F0
:100D0000112D07DAFFF7B1FE303262556D1C50EA43
:100D10000102F5D1084302D00098C8B10EE00021CD
:100D2000681E05E0235C625C63542254401E491C2B
:100D30008142F7DBAB46A81B401E0990002004F857
:100D40000B000B98099AC0F80880C0E9002B7AE7DD
:100D500011264FF0000857E72DE9F04F884604466A
:100D6000D21D22F0070191B0D1E90001CDE90A01BD
:100D700002F0C3F802460B98C00F01D02D2007E007
:100D80002068810701D52B2002E0202101EAC00064
:100D9000032A099001D0072A05DB03464146204675
:100DA00000F0B2F90BE12078800601D5E06900E09F
:100DB0000620B8F1650F814606D0B8F1660F18D04D
:100DC000B8F1670F70D131E00020B9F1110F009038
:100DD00001DB112301E009F101030AAA01A90CA812
:100DE000FFF7E2FEDDE90C70002609F101058346FC
:100DF00047E001204B4600904FF000470AAA01A9A6
:100E00000CA8FFF7D1FEDDE90DB00C995D46002678
:100E100010B909F101000D18B9EB050003D4C0F1B8
:100E2000FF3609F10105A5EB09002BE0B9F1010F2F
:100E300001DA4FF001090020B9F1110F0090484686
:100E400001DD112300E003460AAA01A90CA8FFF75F
:100E5000ABFEDDE90C704D46002683462078000786
:100E60000AD4AB4500DA5D4601A8012D04DD411925
:100E700011F8011C302907D04F4502DA17F1040F91
:100E800004DA012082460FE06D1EEEE7002F02DC3F
:100E9000ED1B3E4403E0781CA84200DD7D1CB81B1E
:100EA00000F1010A4FF000472078000703D4AA455B
:100EB00001DB4FF0FF3A0021B7F1004F0DF143087D
:100EC0008DF8431024D002202B23002F01DA7F421B
:100ED0002D230A21021EA0F1010000DC5FB197FB67
:100EE000F1FC97FBF1F201FB1C7C17460CF1300C76
:100EF00008F801CDEEE7A8F101000370218809058B
:100F000001D5452100E06521A0F1010800F8011C90
:100F100009980FA9A1EB0807FF1D00B10120411995
:100F200001EBEA70A1693844081A401EA0612078DC
:100F3000C00602D42046FFF7B7FA099828B1D4E9D1
:100F400001219047206A401C20622078C00622D5EB
:100F50002046FFF7A9FA1EE0002E04DBB34502DDB0
:100F600001A8805D00E03020D4E901219047206A8B
:100F7000401C2062761CAAF101005FEA000A0AD137
:100F800000F0BEF8C0680168405CD4E901219047D8
:100F9000206A401C2062281EA5F10105DCDC07E068
:100FA000D4E9012118F8010B9047206A401C206207
:100FB000381EA7F10107F3DC2046FFF78BFA032068
:100FC00011B041E610B5436913B1AFF3008001E001
:100FD000FFF7A3FA012010BD127800F124010A7076
:100FE00000224A700122EDE711684FF0FF32E9E775
:100FF00010B5436913B1AFF3008001E0FFF72CFB9C
:10100000012010BD128800F1240182840022C284D4
:101010000122EDE711684FF0FF32E9E770B516469F
:101020000C46054600F064F8036893F801010128B6
:1010300006D0FF2C0FD8185D68B101202C7070BD50
:10104000D3F807013246214603F20713034428462A
:10105000BDE8704018474FF0FF3070BD002801D048
:10106000FFF7CAB97047000010B5002102A000F0D8
:1010700006F9012010BD0000534947414252543A3D
:101080002041626E6F726D616C207465726D696E65
:101090006174696F6E00000010B500F009F9BDE8D9
:1010A0001040FFF7DBBF7546FFF7C0FCAE460500FA
:1010B0006946534620F00700854618B020B5FFF773
:1010C000E9F8BDE820404FF000064FF000074FF070
:1010D00000084FF0000B21F00701AC46ACE8C00956
:1010E000ACE8C009ACE8C009ACE8C0098D4670475F
:1010F00010B500F005F8001D10BD00BF652100000F
:1011000000487047500200202DE9F0411F46044678
:1011100003260168072A01F4006004DB08B116A564
:1011200005E016A503E008B115A500E015A521F01E
:1011300010002060A069C01EA0610FB1401EA06118
:101140002046FFF7B1F94FB1D4E901213846904765
:10115000206A401C2062C01C206206E0206AFAE778
:10116000D4E9012115F8010B9047761EF8D22046EC
:10117000FFF7B0F9BDE8F0814E414E006E616E00A0
:10118000494E4600696E66002DE9F04781461646D5
:101190008AB0354878440DC88DE80D00324878444F
:1011A000801C03AC0DC884E80D0041F69B30084458
:1011B000372190FBF1F290FBF1F5A5F1800501FBE1
:1011C00012041B3C02D56442012000E00020DFF83D
:1011D00098A080460027FA44AAF1BE0A0EE0E00774
:1011E0000AD03246684607EB470101230AEB81012A
:1011F00000F05FFB8DE8070064107F1C002CEED12F
:10120000194F7F44AE3F19E0E80715D007EB0410F3
:101210000DF1180A90E80E008AE80E00C068F0424E
:1012200001D1981908903246012306A903A800F0BD
:1012300040FB03AB83E807006D10641C002DE3D175
:101240004FF0010332466946B8F1000F03A802D0FF
:1012500000F01AFB01E000F02CFBC9E90001C9F81D
:1012600008200AB0BDE8F087AC2B000010B504469A
:10127000AFF300802046BDE81040FEF7F6BF70B522
:1012800005460C460A2000E06D1C00F039F835B127
:1012900028780028F8D102E0641C00F031F814B17D
:1012A00020780028F8D1BDE870400A2000F028B866
:1012B00010B5012805D0002103A0FFF7E0FF0120B1
:1012C00010BD09A1F8E7000053494752544D454D60
:1012D0003A204F7574206F662068656170206D65D7
:1012E0006D6F7279000000003A2048656170206DD2
:1012F000656D6F727920636F7272757074656400CA
:1013000008B569468DF800000320ABBE08BD00009B
:101310004FF0013C50F8042B51F8043B9A4221D184
:10132000A2EB0C03934313EACC1317D150F8042B10
:1013300051F8043B9A4215D1A2EB0C03934313EAF4
:10134000CC130BD150F8042B51F8043B9A4209D12D
:10135000A2EB0C03934313EACC13DBD04FF0000055
:10136000704700BFD01A01BAB1FA81F101F018013B
:1013700022FA01F0CB40C1F12001DBB2C0B2C01AA9
:101380002CFA01F3D11A914311EAC311E6D1704747
:101390005FEA400C08BF91F0000F4FEA8C234FEA40
:1013A000C12243EA51514FEA1C5018BF00F5F040EA
:1013B0004FEA300018BF41F000415FEA6C5C00F07A
:1013C0002980BCF1FF3F08BF40F080407047130CFC
:1013D00006BF12044FF0100C4FF0000C130E04BFA8
:1013E00012020CF1080C130F04BF12010CF1040CD3
:1013F000930F04BF92000CF1020CD30F04BF5200F4
:101400000CF1010C11464FF00002A0F11F00A0EBFF
:101410000C00704711F0004F08BF704731F00041D9
:101420003FF4D5AF0B0C06BF09044FF0100C4FF082
:10143000000C0B0E04BF09020CF1080C0B0F04BFCB
:1014400009010CF1040C8B0F04BF89000CF1020C94
:10145000CB0F04BF49000CF1010CCCF12003A0EB31
:101460000C0022FA03F302FA0CF241EA030100F144
:101470000100704720F07F4C80EA030023F07F4793
:10148000ACEB070303F57C5300F0004003F1FF03CE
:101490002DE980494FEA154B09B44FEA144325EA78
:1014A0000B4E24EA03480FF2042606EB13274908E3
:1014B0003E785FEA320203FB0667C7F5000707FBC9
:1014C00006F64FEA54374FEAD64606F1020607FB06
:1014D000066CCCF1005C4FEA1C472CEA074C07FB7A
:1014E00006F40CFB06F504EB15464FEA961634BFDE
:1014F00000204FF000404FEAD13706FB07FC4FEACF
:101500001C4C0CFB0BF7D21B03FB0CF761EB070128
:101510000CFB0EF7B0EB074072EB17420CFB08F721
:1015200034BFA2EB0742B2EB074261EB17414FEA2F
:101530000C444FEA910706FB07FC4FEA1C4C0CFBDE
:101540000BF7B0EBC74072EB573203FB0CF734BF1D
:10155000A2EBC742B2EBC74261EB57310CFB0EF76F
:10156000B0EBC70072EB57720CFB08F734BFA2EB6D
:10157000C702B2EBC70261EB5771039F4FEA81616B
:1015800041EA921104EBCC044FEAD1374FEA826270
:1015900006FB07FC42EA90124FEA80604FEA1C4CBF
:1015A0000CFB0BF7D21B03FB0CF761EB07010CFBE9
:1015B0000EF7B0EB074072EB17420CFB08F734BF95
:1015C000A2EB0742B2EB074261EB17414FEA8C55A1
:1015D0004FEA910704EB9C2406FB07FC4FEA1C4CE6
:1015E0000CFB0BF7B0EBC74072EB573203FB0CF769
:1015F00034BFA2EBC742B2EBC74261EB57310CFBE1
:101600000EF7B0EBC70072EB57720CFB08F734BF54
:10161000A2EBC702B2EBC70261EB577115EB4C2589
:101620004FEA816141EA92114FEA82624FEAD13773
:1016300042EA901206FB07FC44F100044FEA806086
:101640004FEA1C4C0CFB0BF7D21B03FB0CF761EBB6
:1016500007010CFB0EF7B0EB074072EB17420CFBD7
:1016600008F734BFA2EB0742B2EB074261EB174128
:1016700015EB1C154FEA813141EA92414FEA823263
:1016800042EA90424FEA80304FEA0C7644F100047F
:1016900048EA03434EEA0B484FF0000EB2EB080C49
:1016A00071EB030724BF624639464EEB0E0E4FF036
:1016B000000B0018524149414BEB0B0BB2EB080CED
:1016C00071EB03077BF1000B24BF624639464EEBFA
:1016D0000E0E4FF0000B0018524149414BEB0B0B23
:1016E000B2EB080C71EB03077BF1000B24BF6246E1
:1016F00039464EEB0E0E51EA020718BF46F00106BE
:1017000016EB0E7655F1000254F1000103D5BDE849
:101710008901BDE80088BDE88901BDE80048B61927
:10172000524141EB0101A3F10103704780807F7EAC
:101730007D7C7B7A79787776767574737271717047
:101740006F6E6E6D6C6C6B6A6A69686867666665F9
:101750006464636362616160605F5F5E5E5D5D5C87
:101760005C5B5B5A5A5959585857575656555555F8
:101770005454535352525251515050504F4F4F4E58
:101780004E4D4D4D4C4C4C4B4B4B4A4A4A494949A6
:1017900048484847474747464646454545444444E8
:1017A000444343434342424242414141002B9C4611
:1017B00030D477002BD01CB54FEA370703B44FF075
:1017C00010004FF01001BAF1000F06D0BCF1000F6D
:1017D000DCBF40F0080040F008014FF000000FBCF3
:1017E000BDE810400BF1010BBBF1010F08BF5FEA30
:1017F000170722BF12F1010211F101014FF0004160
:1018000043F1000300F0004043EA00007047F9D3C1
:101810005708D0E746EA064613F1400F4FEA16464E
:101820001FDD13F1200FDFBF16430A4600212033CE
:101830005B42BED0C3F1200746EA064602FA07F72C
:101840004FEA164646EA0706C3F1200722FA03F2DA
:1018500001FA07F721FA03F14FF0000342EA070209
:10186000A7E746EA020646EA06464FEA164646EA71
:101870000106BCBF46EA0646360C4FF000034FF0A7
:1018800000024FF0000194E72DE9804C9A46934600
:1018900070B491E8380007C831EA400C48BF34EA18
:1018A000430C03D5FFF7E6FDFFF780FFF0BCBDE872
:1018B000008C2DE9804C9A46934670B491E838002C
:1018C00007C810F0804F08BF13F0804F03D100F01D
:1018D00005F8FFF76BFFF0BCBDE8008C20F07F47F8
:1018E00080EA030023F07F4C07EB0C03A3F57C5345
:1018F00000F00040A3F1FE0392F0000F00F0B3806F
:1019000095F0000F00F077802DE901494FEA114072
:101910004FEA144621EA004800FB06FC24EA064789
:1019200008FB06F607FB08F800FB07F718EB06486C
:101930004CEB164C4FEA124B18EB07484FEA154692
:101940004CEB174022EA0B4E0BFB06FC25EA064740
:101950000EFB06F607FB0EFE0BFB07F71EEB064E13
:101960004CEB164C4FF000061EEB074E4CEB174BA2
:1019700018EB0B0840F1000018EB0E0B58EB0008B9
:1019800040F100008F1A4FF000013CBFC943661BB5
:1019900014BFB5EB040C00213CBFC943F61B4FEA52
:1019A00017444EEA8E0E27EA04454FEA1C4704FB13
:1019B00007622CEA074C05FB07F70CFB05F604FB56
:1019C0000CFC16EB074642EB174216EB0C4642EBBB
:1019D0001C421BEB060658EB0202414146EA9E06FA
:1019E00001D5BDE80189B619524141EB0101A3F1CE
:1019F0000103BDE801894FEA14454FEA114724EA83
:101A0000054621EA074C05FB07F406FB07F70CFB2C
:101A100006F105FB0CFC11EB074144EB17444FEAC0
:101A2000124711EB0C4144EB1C4422EA074C05FB26
:101A300007F206FB07F70CFB06F605FB0CFC16EBA2
:101A4000074642EB174216EB0C4642EB1C456A1860
:101A500054F1000148BF7047B619524141EB0101F2
:101A6000A3F10103704795F0000F37D04FEA114200
:101A70004FEA144721EA024624EA074C02FB07F129
:101A800006FB07F70CFB06F402FB0CFC14EB074407
:101A900041EB17414FEA154714EB0C4441EB1C4155
:101AA00025EA074C02FB07F506FB07F70CFB06F6D9
:101AB00002FB0CFC16EB074645EB174516EB0C46F4
:101AC00045EB1C42121951F1000148BF7047B6198D
:101AD000524141EB0101A3F1010370474FEA144564
:101AE0004FEA114724EA054621EA074C05FB07F1B6
:101AF00006FB07F70CFB06F24FF0000605FB0CFC9B
:101B000012EB074241EB174112EB0C4251EB1C4127
:101B100048BF7047921841EB0101A3F101037047E0
:101B200010B50748006820F0020005490860054824
:101B300000680068016903480068884710BD00001C
:101B400000240140B400002010B5FEF7B5FB0749A2
:101B50000860002105480068054A1268904703495B
:101B6000086008460068FEF7AEFB10BDE8000020E4
:101B7000A800002010B5FEF79FFB0A4908600A483C
:101B80000068401C08490860012106480068074AAF
:101B9000126890470349086008460068FEF793FB07
:101BA00010BD0000E4000020AC000020A8000020D0
:101BB0004A48006840F48070484908604748083047
:101BC00000684749084045490831086043480068B3
:101BD00044490840414908600846006820F48020D4
:101BE00008603E480830006820F47D003B49083119
:101BF00008600020091D08603848006840F4A020F3
:101C0000364908600846006840F00100086000207E
:101C100006E03249096801F4003101B103E0401CDB
:101C2000B0F5A06FF5D32D48006800F4003000280F
:101C30004FD02D48006840F004002B49086008464A
:101C4000006840F0020008600846006840F00100AB
:101C5000086022482430006840F080501F49243139
:101C60000860C8142149086000BF2048406800F09F
:101C700010000028F9D119480830006817490831C8
:101C80000860084600680860084600680860084662
:101C9000006840F4110008601048006840F080704F
:101CA0000E49086000BF0D48006800F00070002871
:101CB000F9D00A480830006840F0030007490831AD
:101CC000086000BF05480830006800F00C000C28D0
:101CD000F8D14FF0006006490860704700380240B4
:101CE0000CC0FF88FEFFFEEE003C0240007000408A
:101CF00008ED00E010B50248006800F061F810BD82
:101D0000B800002010B50248006800F059F810BD76
:101D1000BC00002010B50248006800F051F810BD6A
:101D2000C000002010B50248006800F049F810BD5E
:101D3000C400002010B50248006800F041F810BD52
:101D4000C800002010B50248006800F039F810BD46
:101D5000CC00002010B50248006801F0AFF810BDBB
:101D6000D000002010B50248006801F0A7F810BDAF
:101D7000D400002010B50248006801F09FF810BDA3
:101D8000D800002010B50248006800F077FF10BDB1
:101D9000DC000020002809DB00F01F020121914037
:101DA0004209920002F1E022C2F8001170470000DF
:101DB000024B03608180C28070470000643D0008D0
:101DC00010B5044600206169088220680169204638
:101DD000884710BD2DE9F04788B004460E4691466D
:101DE00022465E48206002F1080000F02DFDA0F1BF
:101DF000080200BF14465A4810602674207C801EDA
:101E0000062804D2DFE800F00413212F3D4B54E0F4
:101E10004FF080406061534804605348006840F0D0
:101E20000100514908601C20FFF7B4FF45E04F480E
:101E300060614F4804604C48006840F002004A4925
:101E400008601D20FFF7A6FF37E04A4860614A4856
:101E500004604548006840F00400434908601E20C3
:101E6000FFF798FF29E045486061454804603E4817
:101E7000006840F008003C4908602E20FFF78AFF08
:101E80001BE040486061404804603748006840F00B
:101E90001000354908602B20FFF77CFF0DE03B4820
:101EA00060613B4804603048006840F020002E49E3
:101EB00008602C20FFF76EFF00BF00BF484601F00E
:101EC00099FD8046334901F0DDFD0746324901F0B6
:101ED000D9FD8246012507E005EB850045002F4925
:101EE000504601F0A5FC82462D49504601F096FE71
:101EF000F2D3504601F05EFDE060284601F07BFB26
:101F000007468846E06801F076FB0022254BCDE9C4
:101F1000000101F083FB3A464346CDE9020101F09E
:101F20007DFB0022204BCDE9040101F0DFF9CDE972
:101F3000060101F033FB606001206169088061697E
:101F4000888161698882681E616908856169E068C5
:101F5000C862204608B0BDE8F0870000FC3E0008DB
:101F6000843D0008B80000202438024000040040EE
:101F7000BC00002000080040C0000020000C004011
:101F8000C400002000100040C800002000140040E1
:101F9000CC0000200024F44BBD37863500002041E2
:101FA00000FF7F4780842E4180847E4110B5044627
:101FB00004F1080000F012FDA179884201D001204F
:101FC00010BD0020FCE770B504460D466571A07990
:101FD000684008B1012000E00020014604F108003B
:101FE00000F009FD70BD70B504462579206841698F
:101FF000204688472071207910B10DB9012070BDAD
:10200000207910B90DB10220F9E70020F7E70000B0
:102010002DE9F04104460F4690461D46069E0D48A8
:1020200020604246394604F1080000F007FDA0F1A7
:102030000804002020716071A671314604F1080087
:1020400000F0D9FC294604F1080000F0ECFC204621
:10205000BDE8F081A03D0008014901607047000023
:10206000D03D00082DE9F04707460D46002430E03A
:102070001B4850F82400B7EB104F28D1184830F80F
:102080002400C0F30336164810F82400C0F30318E8
:10209000134810F8240000F00F0905F00F00032882
:1020A00001D045F002050F4800680121B140084306
:1020B0000C4908600C48011501FB060A4B462A46EC
:1020C0004146504600F012F80120BDE8F087601C40
:1020D00084B2034850F824000028C9D100BFF4E7B7
:1020E000440000201C380240000002402DE9FF4F50
:1020F00005460C461F466006030E4FEAE408012021
:10210000A0406FEA000903209840C6432046E1172B
:1021100004EB5171C910A4EBC1014FEA810C0F21EE
:1021200001FA0CF16FEA010A02F0030000FA03FB66
:10213000C2F3012098400390C2F30010A040029027
:10214000C2F30130984001902046E11704EB517131
:10215000C910A4EBC1014FEA810C07F00F0101FA8D
:102160000CF1009100F08CFC2868304040EA0B0034
:102170002860E868304003990843E860A88800EACE
:10218000090002990843A880A868304001990843D3
:10219000A86005F1200050F8280000EA0A00009924
:1021A000084305F1200141F8280000F055FCBDE886
:1021B000FF8F2DE9F04105460E46174600F060FC02
:1021C000284600F01AF8002407E0315D68680368CB
:1021D0001A6890473055601C84B2BC42F5DB284633
:1021E00000F004F800F038FCBDE8F08110B50446BA
:1021F00004F1080000F00FFC10BD10B5044604F116
:10220000080000F0E3FB10BD2DE9F04104460D4647
:1022100016461F460E48206065603A46314604F176
:10222000080000F00BFCA0F108044FF00108217C2D
:10223000E068026853684246984700BF00BF616982
:10224000E06803689A68904700BF2046BDE8F081C7
:10225000383F00080149016070470000E43D000874
:102260000246002000BF53681B8903F00203002BC5
:10227000F9D05368998100BF53681B8903F080032C
:10228000002BF9D102E053689B89D8B253681B89AF
:1022900003F00103002BF6D1704700002DE9F04157
:1022A0000446884616461F462046FFF7D3FF0446DD
:1022B0004A482060B8F1010F06D0B8F1020F1CD0D7
:1022C000B8F1030F34D04EE04548606045480068DF
:1022D00040F480504349086000212520FFF7C2FEEA
:1022E00000212220FFF7BEFE00212320FFF7BAFEC7
:1022F00000212420FFF7B6FE35E03B4860603948F6
:10230000001D006840F480403649091D0860002126
:102310002920FFF7A7FE00212620FFF7A3FE0021BA
:102320002720FFF79FFE00212820FFF79BFE1AE0E1
:102330002E4860602B48001D006840F40040294989
:10234000091D086000212D20FFF78CFE00212A20A6
:10235000FFF788FE00212B20FFF784FE00212C20B0
:10236000FFF780FE00BF00BF062E04D2DFE806F0B4
:102370000406080A0C0E00BF062509E0052507E043
:10238000042505E0032503E0022501E0012500BF47
:1023900000BF6068808840F00400616888804FF466
:1023A000607040EAC500001D07F0010109B102217B
:1023B00000E000210843C7F300110843616808806A
:1023C0006068008840F04000616808800021204675
:1023D000FFF746FF2046BDE8F0810000F43D00080D
:1023E000003001402038024000380040003C0040EE
:1023F0002DE9F0418AB004460F4690461E4611A8CA
:1024000001901F2102A8019B109AFDF7BBFF00203D
:1024100001906068016842468B68394698470025FC
:1024200007E002AB595D60680368DA689047681C92
:10243000C5B202A8405D08B11E2DF2DB06E060685F
:102440000168CA6820219047681CC5B2B542F6DB16
:102450000AB0BDE8F08110B50446606802685168B2
:10246000884710BD70B504460D462046FFF7F4FDC1
:102470000446044820606560606802681168884707
:10248000204670BD043E000870B504460D46164651
:1024900025736673207B04280CDA607B142809DA24
:1024A000227B607B62F35F10C0B240F08001204667
:1024B00000F04EF870BD10B504463421204600F0FF
:1024C00047F80B21204600F043F83021204600F069
:1024D0003FF80121204600F03BF80C21204600F097
:1024E00037F810BD10B504460121204600F030F841
:1024F00010BD70B504460D46207B042809DA607BC8
:10250000142806DA2946204600F039F8607B401C82
:10251000607370BD704738B5044640F6FF7500BF64
:102520003F208DF8000000208DF80100A0680168B0
:1025300002224B6869469847281EA5F101018DB219
:1025400005D09DF8010000F080000028E8D138BDDA
:1025500038B504460D461F208DF8000005F00F0029
:102560008DF8010028098DF80200A0680168032297
:102570004B68694698472046FFF7CDFF38BD38B510
:1025800004460D465F208DF8000005F00F008DF821
:10259000010028098DF80200A068016803224B6839
:1025A000694698472046FFF7B6FF38BD70B5044628
:1025B0000D46142204212046FFF7FAFB0446044886
:1025C0002060A5602046FFF776FF204670BD000022
:1025D0001C3E000818B5034600BF00F051FA987B76
:1025E00008B9012000E00020024600F035FA00BFE3
:1025F0000AB1002018BD0020009003F10802002459
:1026000000F03EFA907988B151791068405C0090F2
:102610005179D079401E814202DA5079401C00E0A5
:10262000002050719079401E9071012400F014FA3E
:1026300000BF9DF80000DDE71CB5044604F108006A
:1026400000F024FED0B92068816820468847012820
:1026500002D0022810D107E0012001A9019004F165
:10266000080000F023FE08E002206946009004F113
:10267000080000F01BFE00E000BF00BF04F10800EE
:1026800000F004FED0B9206841682046884703283E
:1026900002D0042810D107E0032001A9019004F121
:1026A000080000F003FE08E004206946009004F1F1
:1026B000080000F0FBFD00E000BF00BF1CBD10B52E
:1026C0000446206960B12069026891698847012841
:1026D00002D0022804D101E0032010BD0420FCE751
:1026E0000020FAE72DE9F04105460F461646002185
:1026F000284600F08DF805460F48286005F10804CB
:102700004FF01408002020716071A07184F80780D8
:10271000E079002803DDE07900F0E9FB206000BFEC
:10272000A4F108052F6126B1306829464268304679
:1027300090472846BDE8F0813C3E000810B50446AD
:102740006069002832D0A06900282FD06069026833
:1027500091698847012802D002280CD106E0A069BF
:1027600002685169884780F0010010BDA0690268C5
:1027700051698847F9E7A06902689169884701288B
:1027800002D0022812D108E06069026851698847C6
:1027900008B10020E9E70220E7E7606902685169B3
:1027A000884708B10220E0E70020DEE70020DCE7F0
:1027B0002DE9F04104460D4616461F46DDF8188007
:1027C000424639462046FFF78DFF04460348206005
:1027D0006561A6612046BDE8F0810000503E00081A
:1027E00003460A46196808E0914201D1002070476B
:1027F000486808B1496800E001E00029F4D100BF51
:1028000009B14A6000E01A600120F0E7704700005B
:1028100030B504460D4605482060002060601DB1BB
:1028200021462846FFF7DCFF204630BD643F000804
:1028300070B505462C6804E020680168204688478A
:102840006468002CF8D170BD00210160704710B59C
:1028500002460B4600F014F9107C08B9012100E093
:10286000002102F1080050F8210030F8134000F078
:10287000F3F8204610BD10B5044620684169204693
:102880008847217C09B1012200E0002204F10801FF
:1028900051F82210A27E21F81200E07E401CE07662
:1028A000E07E617E884209DAE17E6069405CA07664
:1028B000A17E206882692046904707E00020E076EC
:1028C000E17E6069405CA0760020207710BD2DE994
:1028D000F04104460D461746207EA8422ADD002618
:1028E0000CE06069805DA84207D120683A4629461D
:1028F000C36920469847BDE8F081761C607EB042EF
:10290000EFDC607E217E884214DA0020627EA168BE
:1029100021F812000021627EE06820F81210617E2A
:10292000481C60766069455420683A462946C36968
:102930002046984700BFDEE710B50446607EA0B190
:10294000207F90B90020E076E17E6069405CA0764F
:10295000207C08B9012000E00020207401202077AD
:10296000A17E206882692046904710BD70B504465C
:102970000D46164600212046FFF74AFF04460F4841
:10298000206026B1306821464268304690470020DA
:10299000A076E07660762576680000F0A8FAA06060
:1029A000680000F0A4FAE060284600F0A0FA606138
:1029B000002020742077204670BD0000643E00088F
:1029C000014A0260017170478C3E000810B5044650
:1029D000E168606803681A69904710BD10B5044645
:1029E0006068026851698847E168084008B10120C1
:1029F00010BD0020FCE770B504460D462DB1E1681E
:102A0000606803689A68904704E0E168606803685A
:102A10001A69904770BD10B50446E16860680368A4
:102A20009A68904710BD70B504460D46217A6068DB
:102A3000026853682A46984770BD000010B5044BE1
:102A4000036041600272047A0123A340C36010BD99
:102A5000703F00087047000008480078002804DD37
:102A600006480078401E054908700448007820B9DF
:102A7000002080F3108800BF00BF7047A400002032
:102A8000012080F3108800BF02480078401C0149F3
:102A900008707047A400002000B503460A46FFF7FF
:102AA000D9FF0AB1FFF7ECFF184600BD01F01F0285
:102AB000054B1A60044A383A126842F08042024BD1
:102AC000383B1A60704700004024014070B505464D
:102AD0000C461646A01E0E2808D2DFE800F0080DAE
:102AE00007071217070707071C21262B27E00321DA
:102AF0000920FFF7B7FA22E003210A20FFF7B2FA14
:102B00001DE003210D20FFF7ADFA18E003210E2090
:102B1000FFF7A8FA13E003210520FFF7A3FA0EE060
:102B200003210620FFF79EFA09E003210720FFF7A3
:102B300099FA04E003210820FFF794FA00BF00BFD0
:102B400070BD000001460248006880B27047000076
:102B50005824014070B504460D462A4610212046EF
:102B6000FFF704FF04461248206012480460124830
:102B7000006840F40070104908601048006840F692
:102B8000010108430D490860081F006840F020005B
:102B9000091F086000BF09480838006800F04000BD
:102BA0000028F8D01220FFF7F5F8204670BD00008D
:102BB000C03E0008B4000020203802400824014034
:102BC00010B512B1012A06D00CE04FF6F0730B409D
:102BD000054C236006E04FF6F0730B40024C0C34BA
:102BE000236000BF00BF10BD0C74004030B5054627
:102BF0000C4614B1012C0BD015E003211120FFF776
:102C000031FA0A48006840F00300084908600AE009
:102C100003211220FFF726FA0448006840F44030F0
:102C20000249086000BF00BF30BD000000740040D2
:102C300000B5034602211846FFF7C2FE03460548C9
:102C400018600548006840F00050034908601846C5
:102C500000BD0000E83E00082438024010B50446DC
:102C600004F10800FFF7E4FD10BD30B504460D4641
:102C7000294604F10800FFF7B3FD30BD2DE9F0410E
:102C800005462848066806F4806038B128688168DF
:102C9000284688476FF480602249086006F40040A7
:102CA00000283CD0002438E01F4901EB8400D0F814
:102CB000000C00F4004098B104EB440205F14C0113
:102CC00001EBC20000F032F8174F07EB8400D0F898
:102CD000000CC0F3C02221462868036828469847A4
:102CE000114901EB8400D0F8000C00F0800070B1B5
:102CF00004EB440205F14C0101EBC20000F01CF8AA
:102D000044F08001286800220368284698476FF441
:102D1000004004490860601CC4B2082CC4DBBDE854
:102D2000F0810000445C004000500040016821F444
:102D30000041426811607047016821F080014268DB
:102D4000116070472DE9F04703460C466006050EFA
:102D50000120A0406FEA00080320A840C7434FF0BD
:102D600000090026B24602F0010010B1012000FA6D
:102D700005F902F0040010B10120A840064302F05A
:102D8000030010B10220A840064302F0020010B177
:102D9000012000FA04FAFFF773FE58680068384013
:102DA00040EA0900596808605868C06838403043F4
:102DB0005968C8605868808800EA080040EA0A003C
:102DC00059688880FFF748FEBDE8F087436859835B
:102DD000704701464868008A704743681983704706
:102DE0002B4A026000BF2B4A0260082905D2DFE8A7
:102DF00001F0050E172029323B4447E0264A426085
:102E0000264A126842F00102244B1A603EE0244A2E
:102E10004260224A126842F00202204B1A6035E0FA
:102E2000204A42601D4A126842F004021B4B1A609D
:102E30002CE01D4A4260194A126842F00802174B02
:102E40001A6023E0194A4260144A126842F01002E4
:102E5000124B1A601AE0164A4260104A126842F099
:102E600020020E4B1A6011E0124A42600B4A1268AF
:102E700042F04002094B1A6008E00F4A4260074ADC
:102E8000126842F08002054B1A6000BF00BF704715
:102E9000A03E0008183F0008000002401C38024015
:102EA0000004024000080240000C024000100240F2
:102EB00000180240001C02400014024010B50446F5
:102EC000A069008800F0200018B1206881692046C0
:102ED0008847A069008800F0400038B14FF6BF7005
:102EE000A16908802068C1692046884710BD10B5D7
:102EF00004462046FDF7F0F910BD490050EAC12014
:102F000018BF04204A0D18BF40F0010040F2FF72C4
:102F1000B2EB515F08BF40F00200012808BF052056
:102F20007047FDF749FA000008B500213D48FFF75A
:102F3000B3FD4FF47A7204213B48FEF74BFF42F297
:102F4000107202213948FEF745FF00213848FFF78B
:102F500047FF01213748FFF743FF02213648FFF7BB
:102F60003FFF03213548FFF73BFF2F493448FFF768
:102F7000F1FD3448FFF75CFE1123012202213248A3
:102F8000FFF78CF90C232B4A2F493048FFF73CF907
:102F90002E492F48FFF70AFB2D492E48FFF762FA0A
:102FA000012004230822224900902B48FFF730F823
:102FB000012004230F221E4900902848FFF728F81B
:102FC0000120042302461A4900902548FFF720F803
:102FD0001548224B224A204900902248FFF7E8FB7F
:102FE000002003460246124900901F48FFF710F8E0
:102FF000012004230022104900901C48FFF708F824
:103000000120042302460C4900901948FFF700F8FC
:10301000002001230822084900901648FEF7F8FF17
:1030200008BD000000000020F40000200C0100207A
:10303000040000200C000020140000201C000020D0
:10304000240100202800002034000020440100203A
:103050005C0100203C0000206C0100208401002065
:103060009C010020B4010020D0010020E8010020D4
:10307000000200201802002030380A2801D2012066
:1030800070470020704700001CB50027002500BFD6
:1030900000BF4E48006800680022022143684B4888
:1030A000006898474A48006800680021426848481C
:1030B0000068904747A000231A46194600904B48E5
:1030C000FFF796F94AA000231A46012100904748CD
:1030D000FFF78EF978E04A48FEF768FF00B17F1CE1
:1030E000484C94F804902068416920468847207134
:1030F000207920B1B9F1000F01D1012007E020793A
:1031000020B9B9F1000F01D0022000E00020012811
:1031100000D100273C48FFF75DFA012804D00228BF
:1031200004D0032806D103E06D1E04E06D1C02E00C
:10313000002500E000BF00BF2448006800680221AD
:10314000826822480068904780463048FEF72EFF8C
:10315000064631462E48FEF736FF05EB4500C0EB2C
:10316000C5104FF6FF7202EAC001194800680068F6
:103170000022036816480068984726A00A23002208
:103180000221CDE900071948FFF732F923A00A23ED
:103190001A460221CDE900051448FFF729F921A0BC
:1031A0000A2300220321CDE900081048FFF720F987
:1031B0001EA00A231A460321CDE900060B48FFF79B
:1031C00017F90A48FFF747F985E7000024000020B7
:1031D0003000002041707220203420323032322002
:1031E00031313A32323A3336000000003C000020E0
:1031F00048656C6C6F20776F726C64210000000072
:10320000E801002000020020B4010020D0010020CD
:1032100018020020636E743A256400006E756D3AE2
:103220002564000076616C3A256400007377303ABB
:103230002564000010B500290AD00878002807D0BE
:1032400005487844FEF764F8002801D0002010BD3E
:103250000248784410BD0000620D00005A0D0000C5
:1032600010B500290AD00878002807D0054878440E
:10327000FEF74EF8002801D0002010BD0248784427
:1032800010BD0000520D00004A0D000000B50246BE
:10329000FFF7F6FB9079D179884201DB012000E04D
:1032A00000200346FFF7D8FB184600BD30B50246A4
:1032B0000B460024FFF7E4FB9079D179884211DABC
:1032C00018781579116848551179D079401E8142D6
:1032D00002DA1079401C00E0002010719079401C47
:1032E00090710124FFF7B8FB204630BD2DE9C041A5
:1032F00030B4DFF8A0C23CEA111418BF3CEA131442
:1033000000F0EC8081EA03051CEA111444EAD5744C
:1033100018BF1CEA131500F0C780A4EB05044FF09A
:10332000004545EAC12145EAC32341EA505143EA39
:10333000525304F17F74994204F500344FEAC020DF
:103340004FEAC22208BF904200F09C804FEA13650A
:103350000FF24016765D4FEA134506FB05F7C7F1FD
:10336000807706FB07F74FEAD737A7FB036876425B
:10337000C8F58038A7FB06CE38BFA8F1010807FBC7
:1033800008E64FF0000EA6FB028CE6FB03CEDCF154
:10339000000CCEF1004E38BFAEF1010EA6FB0C586A
:1033A0004FF000074FF00005E6FB0E87A1FB08C6B3
:1033B000A0FB07CE16EB0E0645F10005E1FB076505
:1033C00015F1E04E7EBFA4F580345FEA46066D41FC
:1033D00016F1800745F100054FEA17274FEA066608
:1033E00047EA0567A6F1DE46B6F1805F4FEA15258C
:1033F0001FD9384624F0010C05EBC471BCF1FE6FF7
:1034000001EB0C1102D8F0BCBDE8008124425CBF86
:1034100001F5801E9EEAC47F02D4F0BCBDE80081A5
:10342000244238D4F0BCA1F1C041BDE8004100F015
:10343000EDB94FEAD22242EA43524FEAD323A7FB27
:1034400002864FEAD02040EA415007FB03661EEA9D
:103450000E0F4FEAD12105FB026658BFA6EB0056BE
:10346000B6EB00564FEA520E4EEAC37E18EB0E0E34
:1034700056EB530EBDD518EB02085E417F1C55F18B
:103480000005B6E74FF480154FF000074FF0000637
:103490004FF00008ADE7F0BC4FF0000001F1C04173
:1034A00001F00041BDE8008111EA0C1F0CEA131580
:1034B00000D00CE013EA0C1F00F025804FF0000054
:1034C000F0BC81EA030101F00041BDE80081F0BCDD
:1034D000BDE8004181EA030100F098B9F0BCBDE805
:1034E000004170B500F044F9097EFC3E00F007B8D9
:1034F00081EA03014FF0000001F00041704781EACA
:10350000030100F083B9F0BCBDE800414FF00000BA
:1035100021497047FFFDFBF9F7F5F4F2F0EEEDEB12
:10352000E9E8E6E4E3E1E0DEDDDBDAD8D7D5D4D3C1
:10353000D1D0CFCDCCCBCAC8C7C6C5C4C2C1C0BF0D
:10354000BEBDBCBBBAB9B8B7B6B5B4B3B2B1B0AF13
:10355000AEADACABAAA9A8A8A7A6A5A4A3A3A2A1F7
:10356000A09F9F9E9D9C9C9B9A99999897979695B2
:1035700095949393929191908F8F8E8E8D8C8C8B4E
:103580008B8A8989888887878685858484838382D6
:10359000828181800000FF070000F87F4FEA11530D
:1035A000A3F58063D3F11E03A8BFD3F1200C08DB81
:1035B0004FF0004242EAC12252EA505232FA03F07E
:1035C000704709420BD4102BC4BF0020704703F58D
:1035D000787CBCF1FF3F05D04FF0FF3070474FF0D3
:1035E0000000704770B500F0C3F800BF4992248016
:1035F00000207047F0E7B0FA80F310FA03F10AD028
:10360000C3F11D0303F580634FEA41504FEA0352B3
:1036100002EBD12170474FF000007047DFF848C13E
:1036200070B51CEA111E1EBF1CEA13159EEA0C0F92
:1036300095EA0C0F00F06F8081EA030423EA4C1333
:103640004EEAD47E21EA4C1141F4801143F48013F8
:10365000AE44A1FB024CA0FB0365AEF17F7E3619A0
:1036600055EB0C05A1FB034C4CF10003A0FB021C25
:1036700016EB0C06654153F10003094218BF46F0F2
:10368000010613F4007F0BD14FEA03314FEA0530F6
:10369000340341EA155140EA16506FF003020AE084
:1036A0004FEAC3214FEAC520F40241EA555140EAEE
:1036B00056506FF0020202EB2E4201EB025585EAF2
:1036C000CE710AD05FEA440C18BF24F0004450F1D8
:1036D000000041F1000120EAD47040F2FE7C624516
:1036E00000D270BDA84214BF4FF080444FF0404458
:1036F000002E08BF0024BEF1806FA8BFA1F1C04119
:10370000BDE8704080F282804FF0000001F1C041BE
:1037100001F0004170479EEA0C0F0CEA131518BF28
:1037200095EA0C0F06D04FF0000081EA030E0EF070
:10373000004170BD00F01CF88900013E00F007B8A0
:1037400000F009B84FEA430C5FEA5C5C08D081EAFC
:10375000030100F05BB84FEA410C5FEA5C5CF6D114
:103760004FF00000014970470000FF070000F87F9C
:103770000EF1020E2EF0030E5EF8046B364205D4F5
:10378000012A43EB030515F5001F12D8012841EB70
:10379000010C1CF5001F0CD80ED14FEAD17C15F599
:1037A000001F0CEB4C0C0CF1020C08BF4CEBD37C53
:1037B00004E04FF0080C01E04FEAD37C0CEB4C0521
:1037C00026FA05F606F00706B6F1040C06D20EEB53
:1037D000860CBDE870404CF0010C6047DFE80CF04F
:1037E000090B02024FF000414FF00000A1F500214B
:1037F00070BD19461046012851EB010418BFD4F5DD
:10380000001484BF002001F0004170BD0808A0F53D
:1038100000114FEA31017047401058BFC0F14040DD
:10382000491058BFC1F140418142EFF30080704719
:103830004FF47F0C1CEAD0121EBF1CEAD11392EA8F
:103840000C0F93EA0C0F00F0858090EA010F48BF3F
:1038500042F4807240F4000C41F400002CF07F41EF
:1038600020F07F4000B58142A2EB03020FF2081C5A
:10387000ACEB504EC0F100009EF800E04FEA4E0E57
:1038800000FB0EFC38BF49004FEA2C1C02F5FA027F
:103890000CFB0EF34FEACE1E4FEA112C4FEAC1216A
:1038A0000EEB635E42EB22420EFB0CFC4FEA1C5314
:1038B00000FB03114FEA112C4FEA01310EFB0CFC07
:1038C0004FEADC4C00FB0C11C14228BF09184CEB3D
:1038D00003335DF804EB10EB410143EBC250B2F54A
:1038E0007C0F38BF704729D512F0F00F1CBF00F1D4
:1038F000C04000F000407047008182838485868745
:1039000088898B8C8D8E8F919293959697999A9C9E
:103910009D9FA0A2A3A5A7A8AAACAEB0B2B3B5B70D
:10392000B9BCBEC0C2C5C7C9CCCED1D4D7D9DCDFE3
:10393000E2E6E9ECF0F3F7FAFE0000004FEA400C93
:103940000CF1807CBCF17E4F28BF7047B0F1C040C5
:1039500000F05FB990EA010F0CEAD11348BF42F4BE
:103960008072624538BF634507D213F47F0F16D0CB
:1039700080EA010000F00040704710B500F003F944
:10398000097EFC3E00F005B880EA010000F000402E
:10399000704780EA010000F0004000F03AB912F4EC
:1039A0007F0F04BF0248704780EA010000F031B980
:1039B0000000C07FC10DD1F19E0206DB4FEA00235B
:1039C00043F0004323FA02F07047004207D54FEA64
:1039D0004001B1F1FE4F02D24FF00000704710B528
:1039E00000F0D1F849922480002070476FEA20004F
:1039F00070470000B0FA80F310FA03F2C3F19D03A0
:103A00000AD0D90501EB1220530638BF704700F1E8
:103A1000010008BF20F001007047000050EA010CCF
:103A200000F113801CF5000F58BFBCF5000F01D446
:103A30008842704707D710F5000F58BF11F5000FE7
:103A400015D488427047894270471CF5000F04D591
:103A5000BCF5000FF7D5814270474FF0807C1CEB1E
:103A6000400F38BF1CEB410F01D28142704710B5A7
:103A700000F089F8922449004FF000504FF0805137
:103A8000FFF7CABE4FF47F0C1CEAD0121EBF1CEA1F
:103A9000D11392EA0C0F93EA0C0F00F0478090EAE2
:103AA000010F48BF42F480724FF0004C4CEA0020F6
:103AB0004CEA012102EB0302A0FB0113A2F5000274
:103AC000002918BF43F001035B0028BF4FEA33030E
:103AD00042EB22425FEA132C4CEBC2502EBFBCEBF0
:103AE000436FB2F57C0F70474FEA036CBCF1004F97
:103AF00008BF20F00100B2F57C0F38BF70470BD52E
:103B000082F0FF0212F5803FC8BF704700F1C0404D
:103B1000D8BF00F00040704700F5000C5FEA4C0C85
:103B200048BF7047B0F1C04000F073B890EA010F91
:103B30000CEAD11348BF42F48072624538BF634536
:103B400004D280EA010000F00040704710B500F098
:103B50001AF800BF8900013E00F007B800F009B86C
:103B60005FEA410C5FEA1C6C08D080EA010000F0BB
:103B700050B85FEA400C5FEA1C6CF6D14FF0004091
:103B8000A0F5800070470EF1020E2EF0030E5EF8D5
:103B9000044B244204D44FEA4102B2F17F4F11D8C2
:103BA0004FEA4003B3F17F4F0CD80ED14FEAD07CDF
:103BB000B2F17F4F0CEB4C0C0CF1020C08BF4CEB3C
:103BC000D17C04E04FF0080C01E04FEAD17C0CEB13
:103BD0004C0324FA03F404F00704B4F1040C06D2F5
:103BE0000EEB840CBDE810404CF0010C6047DFE8A0
:103BF0000CF0070802024FF00040A0F5800010BD55
:103C00000846420018BFD2F1807288BF00F0004021
:103C100010BDFF2141EAD050C005704751EA000CA9
:103C200000F113801CF5000F58BFBCF5000F01D444
:103C30008142704707D711F5000F58BF10F5000FEC
:103C400015D481427047894270471CF5000F04D596
:103C5000BCF5000FF7D5884270474FF0807C1CEB15
:103C6000410F38BF1CEB400F01D28842704780EAF9
:103C7000010081EA000180EA0100FFF7F8BEFDF7CC
:103C80006BB800000000000000000000303132334B
:103C90003435363738394142434445464030580080
:103CA00030313233343536373839616263646566B2
:103CB000403078000400000800000000000000020E
:103CC000000100001000000002400000000000A001
:103CD0000000000005400000000000C800000000D7
:103CE0000C4000000000409C000000001940000053
:103CF0000020BCBE0000000034400000BFC91B8E85
:103D000000000004B5400000504BCFD06607E2CF62
:103D1000010000006C4100003E8251AADFEEA73492
:103D200001000000D9420000DCB5A0E23A301F9744
:103D3000FFFFFFFFB4450000FD25A0C8E9A3C14F68
:103D4000FFFFFFFFFF3F00000000008000000000B9
:103D5000FF3F0000000000800000000000000000A5
:103D600000000000232F0008232F0008232F000845
:103D7000232F0008000000000000000000000000E9
:103D800000000000000000006B2C00080000000094
:103D9000000000005D2C0008000000000000000092
:103DA00000000000C71F0008000000000000000025
:103DB00000000000AD1F0008E71F00080000000021
:103DC00000000000000000000000000000000000F3
:103DD000232F0008232F0008232F000800000000D5
:103DE00000000000232F0008232F0008000000001F
:103DF0000000000061220008000000000000000038
:103E0000000000000000000057240008F123000813
:103E1000000000000000000000000000E524000891
:103E20001525000889240008F3240008000000007C
:103E3000000000000000000000000000392600081B
:103E4000BF260008232F000800000000000000002B
:103E500039260008BF2600083D27000800000000A2
:103E60000000000039290008CF2800084F2800086A
:103E70000000000077280008232F0008232F0008E7
:103E8000232F00080000000000000000232F00087E
:103E9000232F0008000000000000000000000000C8
:103EA000232F0008232F0008232F0008232F0008AA
:103EB000232F0008232F000800000000000000004E
:103EC00039290008CF2800084F280008000000000A
:103ED00077280008452B0008AD2A0008CD2A0008E5
:103EE0000000000000000000C12B0008ED2B0008BE
:103EF00000000000000000000000000000000000C2
:103F00006B2C0008232F0008232F00085D2C0008CD
:103F1000000000000000000000000000452D000827
:103F2000DB2D000800000000CD2D0008D32D000877
:103F3000000000000000000000000000B3210008A5
:103F40000000000000000000000000000000000071
:103F50000000000000000000000000000000000061
:103F6000000000000D280008000000000000000014
:103F7000272A0008172A0008F7290008CD29000879
:103F8000DD290008D440000800000020F4000000F3
:103F900060010008C8410008F40000209C190000DE
:103FA0007C0100081C00000043000000F8FFFFFF38
:103FB0000C0000000E0000000F0000002E000000AA
:103FC0001001000043000000F8FFFFFF00404040E8
:103FD00040404040404041414141414040404040DC
:103FE0004040404040404040404040404005020288
:103FF0000202020202020202020202020220202047
:1040000020202020202020020202020202029090A2
:1040100090909090101010101010101010101010A0
:1040200010101010101010100202020202028888F4
:104030008888888808080808080808080808080800
:1040400008080808080808080202020240000000E8
:104050000000000000000000000000000000000060
:104060000000000000000000000000000000000050
:104070000000000000000000000000000000000040
:104080000000000000000000000000000000000030
:104090000000000000000000000000000000000020
:1040A0000000000000000000000000000000000010
:1040B0000000000000000000000000000000000000
:1040C00000000000000000000000000000000000F0
:1040D00059EEFFFF0000000000000000000000009B
:1040E00000000000000000000000000000000000D0
:1040F000000000000000000024010020000000007B
:104100000000000028000020000000000000000067
:104110000000000000000000200009004000110025
:10412000A4101600B4101700F5102700E5102600A3
:10413000D5102900010030001100310021003200AB
:1041400031003300421034005210350002103600A6
:10415000121037006210390072103A0082103B00D2
:1041600092103C0097004300A7004200A7204D009A
:10417000B7204C000000000000000000000000001C
:10418000000000000000000000000000000000002F
:10419000000000000000000000000000000000001F
:1041A000000000000000000000000000000000000F
:1041B000000000008000000000000000000000007F
:0841C0000000000000000000F7
:0400000508000125C9
:00000001FF
